{
  "contractName": "AgriMarketplace",
  "abi": [
    {
      "inputs": [],
      "stateMutability": "nonpayable",
      "type": "constructor"
    },
    {
      "anonymous": false,
      "inputs": [
        {
          "indexed": true,
          "internalType": "address",
          "name": "farmer",
          "type": "address"
        }
      ],
      "name": "FarmerVerified",
      "type": "event"
    },
    {
      "anonymous": false,
      "inputs": [
        {
          "indexed": true,
          "internalType": "bytes32",
          "name": "orderHash",
          "type": "bytes32"
        },
        {
          "indexed": true,
          "internalType": "address",
          "name": "buyer",
          "type": "address"
        },
        {
          "indexed": true,
          "internalType": "address",
          "name": "farmer",
          "type": "address"
        },
        {
          "indexed": false,
          "internalType": "bytes32",
          "name": "detailsHash",
          "type": "bytes32"
        }
      ],
      "name": "PaymentProofRecorded",
      "type": "event"
    },
    {
      "anonymous": false,
      "inputs": [
        {
          "indexed": true,
          "internalType": "uint256",
          "name": "productId",
          "type": "uint256"
        },
        {
          "indexed": true,
          "internalType": "address",
          "name": "farmer",
          "type": "address"
        },
        {
          "indexed": false,
          "internalType": "string",
          "name": "name",
          "type": "string"
        },
        {
          "indexed": false,
          "internalType": "uint256",
          "name": "price",
          "type": "uint256"
        }
      ],
      "name": "ProductListed",
      "type": "event"
    },
    {
      "anonymous": false,
      "inputs": [
        {
          "indexed": true,
          "internalType": "uint256",
          "name": "transactionId",
          "type": "uint256"
        },
        {
          "indexed": true,
          "internalType": "uint256",
          "name": "productId",
          "type": "uint256"
        },
        {
          "indexed": true,
          "internalType": "address",
          "name": "buyer",
          "type": "address"
        },
        {
          "indexed": false,
          "internalType": "uint256",
          "name": "quantity",
          "type": "uint256"
        }
      ],
      "name": "ProductPurchased",
      "type": "event"
    },
    {
      "anonymous": false,
      "inputs": [
        {
          "indexed": true,
          "internalType": "uint256",
          "name": "transactionId",
          "type": "uint256"
        }
      ],
      "name": "TransactionCompleted",
      "type": "event"
    },
    {
      "inputs": [
        {
          "internalType": "address",
          "name": "",
          "type": "address"
        },
        {
          "internalType": "uint256",
          "name": "",
          "type": "uint256"
        }
      ],
      "name": "buyerTransactions",
      "outputs": [
        {
          "internalType": "uint256",
          "name": "",
          "type": "uint256"
        }
      ],
      "stateMutability": "view",
      "type": "function"
    },
    {
      "inputs": [
        {
          "internalType": "address",
          "name": "",
          "type": "address"
        },
        {
          "internalType": "uint256",
          "name": "",
          "type": "uint256"
        }
      ],
      "name": "farmerProducts",
      "outputs": [
        {
          "internalType": "uint256",
          "name": "",
          "type": "uint256"
        }
      ],
      "stateMutability": "view",
      "type": "function"
    },
    {
      "inputs": [],
      "name": "owner",
      "outputs": [
        {
          "internalType": "address",
          "name": "",
          "type": "address"
        }
      ],
      "stateMutability": "view",
      "type": "function"
    },
    {
      "inputs": [
        {
          "internalType": "bytes32",
          "name": "",
          "type": "bytes32"
        }
      ],
      "name": "paymentProofs",
      "outputs": [
        {
          "internalType": "bytes32",
          "name": "orderHash",
          "type": "bytes32"
        },
        {
          "internalType": "bytes32",
          "name": "detailsHash",
          "type": "bytes32"
        },
        {
          "internalType": "address",
          "name": "buyer",
          "type": "address"
        },
        {
          "internalType": "address",
          "name": "farmer",
          "type": "address"
        },
        {
          "internalType": "uint256",
          "name": "timestamp",
          "type": "uint256"
        }
      ],
      "stateMutability": "view",
      "type": "function"
    },
    {
      "inputs": [],
      "name": "productCounter",
      "outputs": [
        {
          "internalType": "uint256",
          "name": "",
          "type": "uint256"
        }
      ],
      "stateMutability": "view",
      "type": "function"
    },
    {
      "inputs": [
        {
          "internalType": "uint256",
          "name": "",
          "type": "uint256"
        }
      ],
      "name": "products",
      "outputs": [
        {
          "internalType": "uint256",
          "name": "id",
          "type": "uint256"
        },
        {
          "internalType": "string",
          "name": "name",
          "type": "string"
        },
        {
          "internalType": "string",
          "name": "category",
          "type": "string"
        },
        {
          "internalType": "uint256",
          "name": "price",
          "type": "uint256"
        },
        {
          "internalType": "uint256",
          "name": "quantity",
          "type": "uint256"
        },
        {
          "internalType": "address",
          "name": "farmer",
          "type": "address"
        },
        {
          "internalType": "bool",
          "name": "isActive",
          "type": "bool"
        },
        {
          "internalType": "uint256",
          "name": "timestamp",
          "type": "uint256"
        }
      ],
      "stateMutability": "view",
      "type": "function"
    },
    {
      "inputs": [],
      "name": "transactionCounter",
      "outputs": [
        {
          "internalType": "uint256",
          "name": "",
          "type": "uint256"
        }
      ],
      "stateMutability": "view",
      "type": "function"
    },
    {
      "inputs": [
        {
          "internalType": "uint256",
          "name": "",
          "type": "uint256"
        }
      ],
      "name": "transactions",
      "outputs": [
        {
          "internalType": "uint256",
          "name": "id",
          "type": "uint256"
        },
        {
          "internalType": "uint256",
          "name": "productId",
          "type": "uint256"
        },
        {
          "internalType": "address",
          "name": "buyer",
          "type": "address"
        },
        {
          "internalType": "address",
          "name": "farmer",
          "type": "address"
        },
        {
          "internalType": "uint256",
          "name": "quantity",
          "type": "uint256"
        },
        {
          "internalType": "uint256",
          "name": "totalPrice",
          "type": "uint256"
        },
        {
          "internalType": "uint256",
          "name": "timestamp",
          "type": "uint256"
        },
        {
          "internalType": "bool",
          "name": "isCompleted",
          "type": "bool"
        }
      ],
      "stateMutability": "view",
      "type": "function"
    },
    {
      "inputs": [
        {
          "internalType": "address",
          "name": "",
          "type": "address"
        }
      ],
      "name": "verifiedFarmers",
      "outputs": [
        {
          "internalType": "bool",
          "name": "",
          "type": "bool"
        }
      ],
      "stateMutability": "view",
      "type": "function"
    },
    {
      "inputs": [
        {
          "internalType": "bytes32",
          "name": "orderHash",
          "type": "bytes32"
        },
        {
          "internalType": "bytes32",
          "name": "detailsHash",
          "type": "bytes32"
        },
        {
          "internalType": "address",
          "name": "buyer",
          "type": "address"
        },
        {
          "internalType": "address",
          "name": "farmer",
          "type": "address"
        },
        {
          "internalType": "bytes",
          "name": "buyerSig",
          "type": "bytes"
        },
        {
          "internalType": "bytes",
          "name": "farmerSig",
          "type": "bytes"
        }
      ],
      "name": "recordPaymentProof",
      "outputs": [],
      "stateMutability": "nonpayable",
      "type": "function"
    },
    {
      "inputs": [
        {
          "internalType": "address",
          "name": "farmer",
          "type": "address"
        }
      ],
      "name": "verifyFarmer",
      "outputs": [],
      "stateMutability": "nonpayable",
      "type": "function"
    },
    {
      "inputs": [
        {
          "internalType": "string",
          "name": "_name",
          "type": "string"
        },
        {
          "internalType": "string",
          "name": "_category",
          "type": "string"
        },
        {
          "internalType": "uint256",
          "name": "_price",
          "type": "uint256"
        },
        {
          "internalType": "uint256",
          "name": "_quantity",
          "type": "uint256"
        }
      ],
      "name": "listProduct",
      "outputs": [],
      "stateMutability": "nonpayable",
      "type": "function"
    },
    {
      "inputs": [
        {
          "internalType": "uint256",
          "name": "_productId",
          "type": "uint256"
        },
        {
          "internalType": "uint256",
          "name": "_quantity",
          "type": "uint256"
        }
      ],
      "name": "purchaseProduct",
      "outputs": [],
      "stateMutability": "payable",
      "type": "function"
    },
    {
      "inputs": [
        {
          "internalType": "uint256",
          "name": "_transactionId",
          "type": "uint256"
        }
      ],
      "name": "completeTransaction",
      "outputs": [],
      "stateMutability": "nonpayable",
      "type": "function"
    },
    {
      "inputs": [
        {
          "internalType": "uint256",
          "name": "_productId",
          "type": "uint256"
        }
      ],
      "name": "getProduct",
      "outputs": [
        {
          "components": [
            {
              "internalType": "uint256",
              "name": "id",
              "type": "uint256"
            },
            {
              "internalType": "string",
              "name": "name",
              "type": "string"
            },
            {
              "internalType": "string",
              "name": "category",
              "type": "string"
            },
            {
              "internalType": "uint256",
              "name": "price",
              "type": "uint256"
            },
            {
              "internalType": "uint256",
              "name": "quantity",
              "type": "uint256"
            },
            {
              "internalType": "address",
              "name": "farmer",
              "type": "address"
            },
            {
              "internalType": "bool",
              "name": "isActive",
              "type": "bool"
            },
            {
              "internalType": "uint256",
              "name": "timestamp",
              "type": "uint256"
            }
          ],
          "internalType": "struct AgriMarketplace.Product",
          "name": "",
          "type": "tuple"
        }
      ],
      "stateMutability": "view",
      "type": "function"
    },
    {
      "inputs": [
        {
          "internalType": "uint256",
          "name": "_transactionId",
          "type": "uint256"
        }
      ],
      "name": "getTransaction",
      "outputs": [
        {
          "components": [
            {
              "internalType": "uint256",
              "name": "id",
              "type": "uint256"
            },
            {
              "internalType": "uint256",
              "name": "productId",
              "type": "uint256"
            },
            {
              "internalType": "address",
              "name": "buyer",
              "type": "address"
            },
            {
              "internalType": "address",
              "name": "farmer",
              "type": "address"
            },
            {
              "internalType": "uint256",
              "name": "quantity",
              "type": "uint256"
            },
            {
              "internalType": "uint256",
              "name": "totalPrice",
              "type": "uint256"
            },
            {
              "internalType": "uint256",
              "name": "timestamp",
              "type": "uint256"
            },
            {
              "internalType": "bool",
              "name": "isCompleted",
              "type": "bool"
            }
          ],
          "internalType": "struct AgriMarketplace.Transaction",
          "name": "",
          "type": "tuple"
        }
      ],
      "stateMutability": "view",
      "type": "function"
    },
    {
      "inputs": [
        {
          "internalType": "address",
          "name": "_farmer",
          "type": "address"
        }
      ],
      "name": "getFarmerProducts",
      "outputs": [
        {
          "internalType": "uint256[]",
          "name": "",
          "type": "uint256[]"
        }
      ],
      "stateMutability": "view",
      "type": "function"
    },
    {
      "inputs": [
        {
          "internalType": "address",
          "name": "_buyer",
          "type": "address"
        }
      ],
      "name": "getBuyerTransactions",
      "outputs": [
        {
          "internalType": "uint256[]",
          "name": "",
          "type": "uint256[]"
        }
      ],
      "stateMutability": "view",
      "type": "function"
    },
    {
      "inputs": [],
      "name": "getAllActiveProducts",
      "outputs": [
        {
          "components": [
            {
              "internalType": "uint256",
              "name": "id",
              "type": "uint256"
            },
            {
              "internalType": "string",
              "name": "name",
              "type": "string"
            },
            {
              "internalType": "string",
              "name": "category",
              "type": "string"
            },
            {
              "internalType": "uint256",
              "name": "price",
              "type": "uint256"
            },
            {
              "internalType": "uint256",
              "name": "quantity",
              "type": "uint256"
            },
            {
              "internalType": "address",
              "name": "farmer",
              "type": "address"
            },
            {
              "internalType": "bool",
              "name": "isActive",
              "type": "bool"
            },
            {
              "internalType": "uint256",
              "name": "timestamp",
              "type": "uint256"
            }
          ],
          "internalType": "struct AgriMarketplace.Product[]",
          "name": "",
          "type": "tuple[]"
        }
      ],
      "stateMutability": "view",
      "type": "function"
    }
  ],
  "bytecode": "0x608060405234801561001057600080fd5b50600880546001600160a01b03191633179055611fbc806100326000396000f3fe6080604052600436106101145760003560e01c80637acc0b20116100a0578063be126a9411610064578063be126a9414610441578063c0ad46a514610461578063d0b673b4146104ec578063f5e83e171461050c578063fece87721461052c57600080fd5b80637acc0b20146102de5780638da5cb5b146103125780639ace38c21461034a578063a044042614610401578063b9db15b41461041457600080fd5b80631e04f2b0116100e75780631e04f2b0146101d55780631f16653b146101f7578063235db9f51461020d57806333ea3dc81461022d57806341c6fd0d146102be57600080fd5b80630a5cf042146101195780630c3d272c1461014f57806312c8aa281461018f57806314e887e8146101b1575b600080fd5b34801561012557600080fd5b506101396101343660046118ff565b61054c565b6040516101469190611921565b60405180910390f35b34801561015b57600080fd5b5061017f61016a3660046118ff565b60036020526000908152604090205460ff1681565b6040519015158152602001610146565b34801561019b57600080fd5b506101a46105b8565b6040516101469190611a2e565b3480156101bd57600080fd5b506101c760075481565b604051908152602001610146565b3480156101e157600080fd5b506101f56101f0366004611ad9565b610863565b005b34801561020357600080fd5b506101c760065481565b34801561021957600080fd5b506101f56102283660046118ff565b610bbb565b34801561023957600080fd5b5061024d610248366004611b7d565b610c6b565b60405161014691906000610100820190508251825260208301516020830152604083015160018060a01b03808216604085015280606086015116606085015250506080830151608083015260a083015160a083015260c083015160c083015260e0830151151560e083015292915050565b3480156102ca57600080fd5b506101c76102d9366004611b96565b610d47565b3480156102ea57600080fd5b506102fe6102f9366004611b7d565b610d78565b604051610146989796959493929190611bc0565b34801561031e57600080fd5b50600854610332906001600160a01b031681565b6040516001600160a01b039091168152602001610146565b34801561035657600080fd5b506103b8610365366004611b7d565b60016020819052600091825260409091208054918101546002820154600383015460048401546005850154600686015460079096015494956001600160a01b039485169594909316939192909160ff1688565b6040805198895260208901979097526001600160a01b0395861696880196909652939092166060860152608085015260a084015260c0830152151560e082015261010001610146565b6101f561040f366004611c25565b610eda565b34801561042057600080fd5b5061043461042f366004611b7d565b611225565b6040516101469190611c47565b34801561044d57600080fd5b506101f561045c366004611cfd565b6113bd565b34801561046d57600080fd5b506104b861047c366004611b7d565b6002602081905260009182526040909120805460018201549282015460038301546004909301549193926001600160a01b039182169291169085565b6040805195865260208601949094526001600160a01b0392831693850193909352166060830152608082015260a001610146565b3480156104f857600080fd5b506101396105073660046118ff565b611586565b34801561051857600080fd5b506101f5610527366004611b7d565b6115f0565b34801561053857600080fd5b506101c7610547366004611b96565b6116c5565b6001600160a01b0381166000908152600460209081526040918290208054835181840281018401909452808452606093928301828280156105ac57602002820191906000526020600020905b815481526020019060010190808311610598575b50505050509050919050565b6060600060015b600654811161060957600081815260208190526040902060050154600160a01b900460ff16156105f757816105f381611d87565b9250505b8061060181611d87565b9150506105bf565b5060008167ffffffffffffffff81111561062557610625611c5a565b60405190808252806020026020018201604052801561065e57816020015b61064b611893565b8152602001906001900390816106435790505b509050600060015b600654811161085a57600081815260208190526040902060050154600160a01b900460ff16156108485760008181526020818152604091829020825161010081019093528054835260018101805491928401916106c290611da0565b80601f01602080910402602001604051908101604052809291908181526020018280546106ee90611da0565b801561073b5780601f106107105761010080835404028352916020019161073b565b820191906000526020600020905b81548152906001019060200180831161071e57829003601f168201915b5050505050815260200160028201805461075490611da0565b80601f016020809104026020016040519081016040528092919081815260200182805461078090611da0565b80156107cd5780601f106107a2576101008083540402835291602001916107cd565b820191906000526020600020905b8154815290600101906020018083116107b057829003601f168201915b5050509183525050600382015460208201526004820154604082015260058201546001600160a01b0381166060830152600160a01b900460ff161515608082015260069091015460a090910152835184908490811061082e5761082e611dda565b6020026020010181905250818061084490611d87565b9250505b8061085281611d87565b915050610666565b50909392505050565b600088815260026020526040902060040154156108c05760405162461bcd60e51b8152602060048201526016602482015275141c9bdbd988185b1c9958591e481c9958dbdc99195960521b60448201526064015b60405180910390fd5b6001600160a01b038616158015906108e057506001600160a01b03851615155b6109205760405162461bcd60e51b8152602060048201526011602482015270496e76616c69642061646472657373657360781b60448201526064016108b7565b60408051602081018a905290810188905260009060600160405160208183030381529060405280519060200120905060006109918287878080601f0160208091040260200160405190810160405280939291908181526020018383808284376000920191909152506116e192505050565b905060006109d58386868080601f0160208091040260200160405190810160405280939291908181526020018383808284376000920191909152506116e192505050565b9050886001600160a01b0316826001600160a01b031614610a385760405162461bcd60e51b815260206004820152601760248201527f4275796572207369676e617475726520696e76616c696400000000000000000060448201526064016108b7565b876001600160a01b0316816001600160a01b031614610a995760405162461bcd60e51b815260206004820152601860248201527f4661726d6572207369676e617475726520696e76616c6964000000000000000060448201526064016108b7565b6040518060a001604052808c81526020018b81526020018a6001600160a01b03168152602001896001600160a01b0316815260200142815250600260008d8152602001908152602001600020600082015181600001556020820151816001015560408201518160020160006101000a8154816001600160a01b0302191690836001600160a01b0316021790555060608201518160030160006101000a8154816001600160a01b0302191690836001600160a01b0316021790555060808201518160040155905050876001600160a01b0316896001600160a01b03168c7f4fe473d28a99c0a49fb5c7ffdb01bca8418b5cd38995e781035fd554dd3dc6ac8d604051610ba691815260200190565b60405180910390a45050505050505050505050565b6008546001600160a01b03163314610c1f5760405162461bcd60e51b815260206004820152602160248201527f4f6e6c79206f776e65722063616e2063616c6c20746869732066756e6374696f6044820152603760f91b60648201526084016108b7565b6001600160a01b038116600081815260036020526040808220805460ff19166001179055517f97fd55e582c49240f46c243bd781dd3df6defaecbdb51de7b250b3162bdc99ab9190a250565b610cc7604051806101000160405280600081526020016000815260200160006001600160a01b0316815260200160006001600160a01b031681526020016000815260200160008152602001600081526020016000151581525090565b5060009081526001602081815260409283902083516101008101855281548152928101549183019190915260028101546001600160a01b03908116938301939093526003810154909216606082015260048201546080820152600582015460a0820152600682015460c082015260079091015460ff16151560e082015290565b60056020528160005260406000208181548110610d6357600080fd5b90600052602060002001600091509150505481565b60006020819052908152604090208054600182018054919291610d9a90611da0565b80601f0160208091040260200160405190810160405280929190818152602001828054610dc690611da0565b8015610e135780601f10610de857610100808354040283529160200191610e13565b820191906000526020600020905b815481529060010190602001808311610df657829003601f168201915b505050505090806002018054610e2890611da0565b80601f0160208091040260200160405190810160405280929190818152602001828054610e5490611da0565b8015610ea15780601f10610e7657610100808354040283529160200191610ea1565b820191906000526020600020905b815481529060010190602001808311610e8457829003601f168201915b50505050600383015460048401546005850154600690950154939491939092506001600160a01b03821691600160a01b900460ff169088565b60008281526020819052604090206005810154600160a01b900460ff16610f3b5760405162461bcd60e51b815260206004820152601560248201527450726f64756374206973206e6f742061637469766560581b60448201526064016108b7565b8181600401541015610f8f5760405162461bcd60e51b815260206004820152601f60248201527f496e73756666696369656e74207175616e7469747920617661696c61626c650060448201526064016108b7565b818160030154610f9f9190611df0565b341015610fe55760405162461bcd60e51b8152602060048201526014602482015273125b9cdd59999a58da595b9d081c185e5b595b9d60621b60448201526064016108b7565b60078054906000610ff583611d87565b90915550506040805161010081018252600754815260208101859052339181019190915260058201546001600160a01b0316606082015260808101839052600382015460a0820190611048908590611df0565b815242602080830191909152600060409283018190526007805482526001808452848320865181559386015190840155928401516002830180546001600160a01b039283166001600160a01b0319918216179091556060860151600385018054919093169116179055608084015160048084019190915560a0850151600584015560c0850151600684015560e09094015191909201805491151560ff199092169190911790559082018054849290611101908490611e07565b909155505060048101546000036111225760058101805460ff60a01b191690555b3360009081526005602090815260408220600754815460018101835591845291832001556064611153346002611df0565b61115d9190611e1a565b9050600061116b8234611e07565b60058401546040519192506001600160a01b03169082156108fc029083906000818181858888f193505050501580156111a8573d6000803e3d6000fd5b506008546040516001600160a01b039091169083156108fc029084906000818181858888f193505050501580156111e3573d6000803e3d6000fd5b50600754604051858152339187917fbd67bb7090da70936c907049a5337912b1a6489a2e4c7dd279e6ef50d6e8437b9060200160405180910390a45050505050565b61122d611893565b600082815260208181526040918290208251610100810190935280548352600181018054919284019161125f90611da0565b80601f016020809104026020016040519081016040528092919081815260200182805461128b90611da0565b80156112d85780601f106112ad576101008083540402835291602001916112d8565b820191906000526020600020905b8154815290600101906020018083116112bb57829003601f168201915b505050505081526020016002820180546112f190611da0565b80601f016020809104026020016040519081016040528092919081815260200182805461131d90611da0565b801561136a5780601f1061133f5761010080835404028352916020019161136a565b820191906000526020600020905b81548152906001019060200180831161134d57829003601f168201915b5050509183525050600382015460208201526004820154604082015260058201546001600160a01b0381166060830152600160a01b900460ff161515608082015260069091015460a09091015292915050565b3360009081526003602052604090205460ff1661142c5760405162461bcd60e51b815260206004820152602760248201527f4f6e6c79207665726966696564206661726d6572732063616e206c6973742070604482015266726f647563747360c81b60648201526084016108b7565b6006805490600061143c83611d87565b90915550506040805161010081018252600654808252602080830188815283850188905260608401879052608084018690523360a0850152600160c085018190524260e086015260009384529183905293909120825181559251919291908201906114a79082611e8b565b50604082015160028201906114bc9082611e8b565b5060608201516003820155608082015160048083019190915560a083015160058301805460c08601511515600160a01b026001600160a81b03199091166001600160a01b039093169290921791909117905560e09092015160069182015533600081815260209384526040808220845481546001810183559184529590922090910193909355905491519091907f899c32fbd27a24397979837f3acd7bfee4a37ee60b2d2f1a0643a725f39a7a49906115789088908790611f4b565b60405180910390a350505050565b6001600160a01b0381166000908152600560209081526040918290208054835181840281018401909452808452606093928301828280156105ac57602002820191906000526020600020908154815260200190600101908083116105985750505050509050919050565b600081815260016020526040902060028101546001600160a01b0316331480611625575060038101546001600160a01b031633145b6116875760405162461bcd60e51b815260206004820152602d60248201527f4f6e6c79206275796572206f72206661726d65722063616e20636f6d706c657460448201526c32903a3930b739b0b1ba34b7b760991b60648201526084016108b7565b60078101805460ff1916600117905560405182907f161186077e0cdfa49fae16d54ce01ea091439dbf14243419593fa6c051c906c890600090a25050565b60046020528160005260406000208181548110610d6357600080fd5b6000806000806116f0856117b3565b925092509250600161174f876040517f19457468657265756d205369676e6564204d6573736167653a0a3332000000006020820152603c8101829052600090605c01604051602081830303815290604052805190602001209050919050565b6040805160008152602081018083529290925260ff841690820152606081018590526080810184905260a0016020604051602081039080840390855afa15801561179d573d6000803e3d6000fd5b5050506020604051035193505050505b92915050565b600080600083516041146118095760405162461bcd60e51b815260206004820152601860248201527f496e76616c6964207369676e6174757265206c656e677468000000000000000060448201526064016108b7565b50505060208101516040820151606083015160001a601b81101561183557611832601b82611f6d565b90505b8060ff16601b148061184a57508060ff16601c145b61188c5760405162461bcd60e51b815260206004820152601360248201527224b73b30b634b21039b4b3b730ba3ab932903b60691b60448201526064016108b7565b9193909250565b604051806101000160405280600081526020016060815260200160608152602001600081526020016000815260200160006001600160a01b03168152602001600015158152602001600081525090565b80356001600160a01b03811681146118fa57600080fd5b919050565b60006020828403121561191157600080fd5b61191a826118e3565b9392505050565b6020808252825182820181905260009190848201906040850190845b818110156119595783518352928401929184019160010161193d565b50909695505050505050565b6000815180845260005b8181101561198b5760208185018101518683018201520161196f565b506000602082860101526020601f19601f83011685010191505092915050565b60006101008251845260208301518160208601526119cb82860182611965565b915050604083015184820360408601526119e58282611965565b915050606083015160608501526080830151608085015260018060a01b0360a08401511660a085015260c0830151151560c085015260e083015160e08501528091505092915050565b6000602080830181845280855180835260408601915060408160051b870101925083870160005b82811015611a8357603f19888603018452611a718583516119ab565b94509285019290850190600101611a55565b5092979650505050505050565b60008083601f840112611aa257600080fd5b50813567ffffffffffffffff811115611aba57600080fd5b602083019150836020828501011115611ad257600080fd5b9250929050565b60008060008060008060008060c0898b031215611af557600080fd5b8835975060208901359650611b0c60408a016118e3565b9550611b1a60608a016118e3565b9450608089013567ffffffffffffffff80821115611b3757600080fd5b611b438c838d01611a90565b909650945060a08b0135915080821115611b5c57600080fd5b50611b698b828c01611a90565b999c989b5096995094979396929594505050565b600060208284031215611b8f57600080fd5b5035919050565b60008060408385031215611ba957600080fd5b611bb2836118e3565b946020939093013593505050565b60006101008a8352806020840152611bda8184018b611965565b90508281036040840152611bee818a611965565b6060840198909852505060808101949094526001600160a01b039290921660a0840152151560c083015260e0909101529392505050565b60008060408385031215611c3857600080fd5b50508035926020909101359150565b60208152600061191a60208301846119ab565b634e487b7160e01b600052604160045260246000fd5b600082601f830112611c8157600080fd5b813567ffffffffffffffff80821115611c9c57611c9c611c5a565b604051601f8301601f19908116603f01168101908282118183101715611cc457611cc4611c5a565b81604052838152866020858801011115611cdd57600080fd5b836020870160208301376000602085830101528094505050505092915050565b60008060008060808587031215611d1357600080fd5b843567ffffffffffffffff80821115611d2b57600080fd5b611d3788838901611c70565b95506020870135915080821115611d4d57600080fd5b50611d5a87828801611c70565b949794965050505060408301359260600135919050565b634e487b7160e01b600052601160045260246000fd5b600060018201611d9957611d99611d71565b5060010190565b600181811c90821680611db457607f821691505b602082108103611dd457634e487b7160e01b600052602260045260246000fd5b50919050565b634e487b7160e01b600052603260045260246000fd5b80820281158282048414176117ad576117ad611d71565b818103818111156117ad576117ad611d71565b600082611e3757634e487b7160e01b600052601260045260246000fd5b500490565b601f821115611e8657600081815260208120601f850160051c81016020861015611e635750805b601f850160051c820191505b81811015611e8257828155600101611e6f565b5050505b505050565b815167ffffffffffffffff811115611ea557611ea5611c5a565b611eb981611eb38454611da0565b84611e3c565b602080601f831160018114611eee5760008415611ed65750858301515b600019600386901b1c1916600185901b178555611e82565b600085815260208120601f198616915b82811015611f1d57888601518255948401946001909101908401611efe565b5085821015611f3b5787850151600019600388901b60f8161c191681555b5050505050600190811b01905550565b604081526000611f5e6040830185611965565b90508260208301529392505050565b60ff81811683821601908111156117ad576117ad611d7156fea264697066735822122021803c54184044c3d2b75c21c857cfa4ab04e978879c3919e459cc6ec79cf9b964736f6c63430008130033",
  "immutableReferences": {},
  "source": "// SPDX-License-Identifier: MIT\npragma solidity ^0.8.0;\ncontract AgriMarketplace {\n    struct Product {\n        uint256 id;\n        string name;\n        string category;\n        uint256 price;\n        uint256 quantity;\n        address farmer;\n        bool isActive;\n        uint256 timestamp;\n    }\n    \n    struct Transaction {\n        uint256 id;\n        uint256 productId;\n        address buyer;\n        address farmer;\n        uint256 quantity;\n        uint256 totalPrice;\n        uint256 timestamp;\n        bool isCompleted;\n    }\n\n    // Off-chain payment proof (Airtel / bank transfer / etc.) for non-repudiation.\n    // The proof is accepted only if BOTH buyer and farmer signatures are valid.\n    struct PaymentProof {\n        bytes32 orderHash;     // hash of off-chain order id (bytes32)\n        bytes32 detailsHash;   // hash of off-chain payment details (bytes32)\n        address buyer;\n        address farmer;\n        uint256 timestamp;\n    }\n    \n    mapping(uint256 => Product) public products;\n    mapping(uint256 => Transaction) public transactions;\n    mapping(bytes32 => PaymentProof) public paymentProofs;\n    mapping(address => bool) public verifiedFarmers;\n    mapping(address => uint256[]) public farmerProducts;\n    mapping(address => uint256[]) public buyerTransactions;\n    \n    uint256 public productCounter;\n    uint256 public transactionCounter;\n    \n    address public owner;\n    \n    event ProductListed(uint256 indexed productId, address indexed farmer, string name, uint256 price);\n    event ProductPurchased(uint256 indexed transactionId, uint256 indexed productId, address indexed buyer, uint256 quantity);\n    event FarmerVerified(address indexed farmer);\n    event TransactionCompleted(uint256 indexed transactionId);\n    event PaymentProofRecorded(bytes32 indexed orderHash, address indexed buyer, address indexed farmer, bytes32 detailsHash);\n    \n    modifier onlyOwner() {\n        require(msg.sender == owner, \"Only owner can call this function\");\n        _;\n    }\n    \n    modifier onlyVerifiedFarmer() {\n        require(verifiedFarmers[msg.sender], \"Only verified farmers can list products\");\n        _;\n    }\n    \n    constructor() {\n        owner = msg.sender;\n    }\n\n    function _splitSig(bytes memory sig) internal pure returns (bytes32 r, bytes32 s, uint8 v) {\n        require(sig.length == 65, \"Invalid signature length\");\n        assembly {\n            r := mload(add(sig, 32))\n            s := mload(add(sig, 64))\n            v := byte(0, mload(add(sig, 96)))\n        }\n        if (v < 27) {\n            v += 27;\n        }\n        require(v == 27 || v == 28, \"Invalid signature v\");\n    }\n\n    function _toEthSignedMessageHash(bytes32 messageHash) internal pure returns (bytes32) {\n        // EIP-191 personal_sign prefix\n        return keccak256(abi.encodePacked(\"\\x19Ethereum Signed Message:\\n32\", messageHash));\n    }\n\n    function _recover(bytes32 messageHash, bytes memory sig) internal pure returns (address) {\n        (bytes32 r, bytes32 s, uint8 v) = _splitSig(sig);\n        return ecrecover(_toEthSignedMessageHash(messageHash), v, r, s);\n    }\n\n    // messageHash MUST be: keccak256(abi.encodePacked(orderHash, detailsHash))\n    function recordPaymentProof(\n        bytes32 orderHash,\n        bytes32 detailsHash,\n        address buyer,\n        address farmer,\n        bytes calldata buyerSig,\n        bytes calldata farmerSig\n    ) public {\n        require(paymentProofs[orderHash].timestamp == 0, \"Proof already recorded\");\n        require(buyer != address(0) && farmer != address(0), \"Invalid addresses\");\n\n        bytes32 messageHash = keccak256(abi.encodePacked(orderHash, detailsHash));\n\n        address recoveredBuyer = _recover(messageHash, buyerSig);\n        address recoveredFarmer = _recover(messageHash, farmerSig);\n\n        require(recoveredBuyer == buyer, \"Buyer signature invalid\");\n        require(recoveredFarmer == farmer, \"Farmer signature invalid\");\n\n        paymentProofs[orderHash] = PaymentProof({\n            orderHash: orderHash,\n            detailsHash: detailsHash,\n            buyer: buyer,\n            farmer: farmer,\n            timestamp: block.timestamp\n        });\n\n        emit PaymentProofRecorded(orderHash, buyer, farmer, detailsHash);\n    }\n    \n    function verifyFarmer(address farmer) public onlyOwner {\n        verifiedFarmers[farmer] = true;\n        emit FarmerVerified(farmer);\n    }\n    \n    function listProduct(\n        string memory _name,\n        string memory _category,\n        uint256 _price,\n        uint256 _quantity\n    ) public onlyVerifiedFarmer {\n        productCounter++;\n        \n        products[productCounter] = Product({\n            id: productCounter,\n            name: _name,\n            category: _category,\n            price: _price,\n            quantity: _quantity,\n            farmer: msg.sender,\n            isActive: true,\n            timestamp: block.timestamp\n        });\n        \n        farmerProducts[msg.sender].push(productCounter);\n        \n        emit ProductListed(productCounter, msg.sender, _name, _price);\n    }\n    \n    function purchaseProduct(uint256 _productId, uint256 _quantity) public payable {\n        Product storage product = products[_productId];\n        \n        require(product.isActive, \"Product is not active\");\n        require(product.quantity >= _quantity, \"Insufficient quantity available\");\n        require(msg.value >= product.price * _quantity, \"Insufficient payment\");\n        \n        transactionCounter++;\n        \n        transactions[transactionCounter] = Transaction({\n            id: transactionCounter,\n            productId: _productId,\n            buyer: msg.sender,\n            farmer: product.farmer,\n            quantity: _quantity,\n            totalPrice: product.price * _quantity,\n            timestamp: block.timestamp,\n            isCompleted: false\n        });\n        \n        product.quantity -= _quantity;\n        if (product.quantity == 0) {\n            product.isActive = false;\n        }\n        \n        buyerTransactions[msg.sender].push(transactionCounter);\n        \n        // Transfer payment to farmer (minus platform fee)\n        uint256 platformFee = (msg.value * 2) / 100; // 2% platform fee\n        uint256 farmerPayment = msg.value - platformFee;\n        \n        payable(product.farmer).transfer(farmerPayment);\n        payable(owner).transfer(platformFee);\n        \n        emit ProductPurchased(transactionCounter, _productId, msg.sender, _quantity);\n    }\n    \n    function completeTransaction(uint256 _transactionId) public {\n        Transaction storage transaction = transactions[_transactionId];\n        \n        require(\n            msg.sender == transaction.buyer || msg.sender == transaction.farmer,\n            \"Only buyer or farmer can complete transaction\"\n        );\n        \n        transaction.isCompleted = true;\n        \n        emit TransactionCompleted(_transactionId);\n    }\n    \n    function getProduct(uint256 _productId) public view returns (Product memory) {\n        return products[_productId];\n    }\n    \n    function getTransaction(uint256 _transactionId) public view returns (Transaction memory) {\n        return transactions[_transactionId];\n    }\n    \n    function getFarmerProducts(address _farmer) public view returns (uint256[] memory) {\n        return farmerProducts[_farmer];\n    }\n    \n    function getBuyerTransactions(address _buyer) public view returns (uint256[] memory) {\n        return buyerTransactions[_buyer];\n    }\n    \n    function getAllActiveProducts() public view returns (Product[] memory) {\n        uint256 activeCount = 0;\n        \n        // Count active products\n        for (uint256 i = 1; i <= productCounter; i++) {\n            if (products[i].isActive) {\n                activeCount++;\n            }\n        }\n        \n        Product[] memory activeProducts = new Product[](activeCount);\n        uint256 index = 0;\n        \n        // Fill array with active products\n        for (uint256 i = 1; i <= productCounter; i++) {\n            if (products[i].isActive) {\n                activeProducts[index] = products[i];\n                index++;\n            }\n        }\n        \n        return activeProducts;\n    }\n}",
  "sourcePath": "/workspace/blockchain/contracts/AgriMarketplace.sol",
  "compiler": {
    "name": "solc",
    "version": "0.8.19+commit.7dd6d404.Emscripten.clang"
  },
  "schemaVersion": "3.4.16",
  "updatedAt": "2026-01-11T10:02:23.131Z",
  "devdoc": {
    "kind": "dev",
    "methods": {},
    "version": 1
  },
  "userdoc": {
    "kind": "user",
    "methods": {},
    "version": 1
  }
}