{
  "contractName": "AgriMarketplace",
  "abi": [
    {
      "inputs": [],
      "stateMutability": "nonpayable",
      "type": "constructor"
    },
    {
      "anonymous": false,
      "inputs": [
        {
          "indexed": true,
          "internalType": "address",
          "name": "farmer",
          "type": "address"
        }
      ],
      "name": "FarmerVerified",
      "type": "event"
    },
    {
      "anonymous": false,
      "inputs": [
        {
          "indexed": true,
          "internalType": "uint256",
          "name": "productId",
          "type": "uint256"
        },
        {
          "indexed": true,
          "internalType": "address",
          "name": "farmer",
          "type": "address"
        },
        {
          "indexed": false,
          "internalType": "string",
          "name": "name",
          "type": "string"
        },
        {
          "indexed": false,
          "internalType": "uint256",
          "name": "price",
          "type": "uint256"
        }
      ],
      "name": "ProductListed",
      "type": "event"
    },
    {
      "anonymous": false,
      "inputs": [
        {
          "indexed": true,
          "internalType": "uint256",
          "name": "transactionId",
          "type": "uint256"
        },
        {
          "indexed": true,
          "internalType": "uint256",
          "name": "productId",
          "type": "uint256"
        },
        {
          "indexed": true,
          "internalType": "address",
          "name": "buyer",
          "type": "address"
        },
        {
          "indexed": false,
          "internalType": "uint256",
          "name": "quantity",
          "type": "uint256"
        }
      ],
      "name": "ProductPurchased",
      "type": "event"
    },
    {
      "anonymous": false,
      "inputs": [
        {
          "indexed": true,
          "internalType": "uint256",
          "name": "transactionId",
          "type": "uint256"
        }
      ],
      "name": "TransactionCompleted",
      "type": "event"
    },
    {
      "inputs": [
        {
          "internalType": "address",
          "name": "",
          "type": "address"
        },
        {
          "internalType": "uint256",
          "name": "",
          "type": "uint256"
        }
      ],
      "name": "buyerTransactions",
      "outputs": [
        {
          "internalType": "uint256",
          "name": "",
          "type": "uint256"
        }
      ],
      "stateMutability": "view",
      "type": "function"
    },
    {
      "inputs": [
        {
          "internalType": "address",
          "name": "",
          "type": "address"
        },
        {
          "internalType": "uint256",
          "name": "",
          "type": "uint256"
        }
      ],
      "name": "farmerProducts",
      "outputs": [
        {
          "internalType": "uint256",
          "name": "",
          "type": "uint256"
        }
      ],
      "stateMutability": "view",
      "type": "function"
    },
    {
      "inputs": [],
      "name": "owner",
      "outputs": [
        {
          "internalType": "address",
          "name": "",
          "type": "address"
        }
      ],
      "stateMutability": "view",
      "type": "function"
    },
    {
      "inputs": [],
      "name": "productCounter",
      "outputs": [
        {
          "internalType": "uint256",
          "name": "",
          "type": "uint256"
        }
      ],
      "stateMutability": "view",
      "type": "function"
    },
    {
      "inputs": [
        {
          "internalType": "uint256",
          "name": "",
          "type": "uint256"
        }
      ],
      "name": "products",
      "outputs": [
        {
          "internalType": "uint256",
          "name": "id",
          "type": "uint256"
        },
        {
          "internalType": "string",
          "name": "name",
          "type": "string"
        },
        {
          "internalType": "string",
          "name": "category",
          "type": "string"
        },
        {
          "internalType": "uint256",
          "name": "price",
          "type": "uint256"
        },
        {
          "internalType": "uint256",
          "name": "quantity",
          "type": "uint256"
        },
        {
          "internalType": "address",
          "name": "farmer",
          "type": "address"
        },
        {
          "internalType": "bool",
          "name": "isActive",
          "type": "bool"
        },
        {
          "internalType": "uint256",
          "name": "timestamp",
          "type": "uint256"
        }
      ],
      "stateMutability": "view",
      "type": "function"
    },
    {
      "inputs": [],
      "name": "transactionCounter",
      "outputs": [
        {
          "internalType": "uint256",
          "name": "",
          "type": "uint256"
        }
      ],
      "stateMutability": "view",
      "type": "function"
    },
    {
      "inputs": [
        {
          "internalType": "uint256",
          "name": "",
          "type": "uint256"
        }
      ],
      "name": "transactions",
      "outputs": [
        {
          "internalType": "uint256",
          "name": "id",
          "type": "uint256"
        },
        {
          "internalType": "uint256",
          "name": "productId",
          "type": "uint256"
        },
        {
          "internalType": "address",
          "name": "buyer",
          "type": "address"
        },
        {
          "internalType": "address",
          "name": "farmer",
          "type": "address"
        },
        {
          "internalType": "uint256",
          "name": "quantity",
          "type": "uint256"
        },
        {
          "internalType": "uint256",
          "name": "totalPrice",
          "type": "uint256"
        },
        {
          "internalType": "uint256",
          "name": "timestamp",
          "type": "uint256"
        },
        {
          "internalType": "bool",
          "name": "isCompleted",
          "type": "bool"
        }
      ],
      "stateMutability": "view",
      "type": "function"
    },
    {
      "inputs": [
        {
          "internalType": "address",
          "name": "",
          "type": "address"
        }
      ],
      "name": "verifiedFarmers",
      "outputs": [
        {
          "internalType": "bool",
          "name": "",
          "type": "bool"
        }
      ],
      "stateMutability": "view",
      "type": "function"
    },
    {
      "inputs": [
        {
          "internalType": "address",
          "name": "farmer",
          "type": "address"
        }
      ],
      "name": "verifyFarmer",
      "outputs": [],
      "stateMutability": "nonpayable",
      "type": "function"
    },
    {
      "inputs": [
        {
          "internalType": "string",
          "name": "_name",
          "type": "string"
        },
        {
          "internalType": "string",
          "name": "_category",
          "type": "string"
        },
        {
          "internalType": "uint256",
          "name": "_price",
          "type": "uint256"
        },
        {
          "internalType": "uint256",
          "name": "_quantity",
          "type": "uint256"
        }
      ],
      "name": "listProduct",
      "outputs": [],
      "stateMutability": "nonpayable",
      "type": "function"
    },
    {
      "inputs": [
        {
          "internalType": "uint256",
          "name": "_productId",
          "type": "uint256"
        },
        {
          "internalType": "uint256",
          "name": "_quantity",
          "type": "uint256"
        }
      ],
      "name": "purchaseProduct",
      "outputs": [],
      "stateMutability": "payable",
      "type": "function"
    },
    {
      "inputs": [
        {
          "internalType": "uint256",
          "name": "_transactionId",
          "type": "uint256"
        }
      ],
      "name": "completeTransaction",
      "outputs": [],
      "stateMutability": "nonpayable",
      "type": "function"
    },
    {
      "inputs": [
        {
          "internalType": "uint256",
          "name": "_productId",
          "type": "uint256"
        }
      ],
      "name": "getProduct",
      "outputs": [
        {
          "components": [
            {
              "internalType": "uint256",
              "name": "id",
              "type": "uint256"
            },
            {
              "internalType": "string",
              "name": "name",
              "type": "string"
            },
            {
              "internalType": "string",
              "name": "category",
              "type": "string"
            },
            {
              "internalType": "uint256",
              "name": "price",
              "type": "uint256"
            },
            {
              "internalType": "uint256",
              "name": "quantity",
              "type": "uint256"
            },
            {
              "internalType": "address",
              "name": "farmer",
              "type": "address"
            },
            {
              "internalType": "bool",
              "name": "isActive",
              "type": "bool"
            },
            {
              "internalType": "uint256",
              "name": "timestamp",
              "type": "uint256"
            }
          ],
          "internalType": "struct AgriMarketplace.Product",
          "name": "",
          "type": "tuple"
        }
      ],
      "stateMutability": "view",
      "type": "function"
    },
    {
      "inputs": [
        {
          "internalType": "uint256",
          "name": "_transactionId",
          "type": "uint256"
        }
      ],
      "name": "getTransaction",
      "outputs": [
        {
          "components": [
            {
              "internalType": "uint256",
              "name": "id",
              "type": "uint256"
            },
            {
              "internalType": "uint256",
              "name": "productId",
              "type": "uint256"
            },
            {
              "internalType": "address",
              "name": "buyer",
              "type": "address"
            },
            {
              "internalType": "address",
              "name": "farmer",
              "type": "address"
            },
            {
              "internalType": "uint256",
              "name": "quantity",
              "type": "uint256"
            },
            {
              "internalType": "uint256",
              "name": "totalPrice",
              "type": "uint256"
            },
            {
              "internalType": "uint256",
              "name": "timestamp",
              "type": "uint256"
            },
            {
              "internalType": "bool",
              "name": "isCompleted",
              "type": "bool"
            }
          ],
          "internalType": "struct AgriMarketplace.Transaction",
          "name": "",
          "type": "tuple"
        }
      ],
      "stateMutability": "view",
      "type": "function"
    },
    {
      "inputs": [
        {
          "internalType": "address",
          "name": "_farmer",
          "type": "address"
        }
      ],
      "name": "getFarmerProducts",
      "outputs": [
        {
          "internalType": "uint256[]",
          "name": "",
          "type": "uint256[]"
        }
      ],
      "stateMutability": "view",
      "type": "function"
    },
    {
      "inputs": [
        {
          "internalType": "address",
          "name": "_buyer",
          "type": "address"
        }
      ],
      "name": "getBuyerTransactions",
      "outputs": [
        {
          "internalType": "uint256[]",
          "name": "",
          "type": "uint256[]"
        }
      ],
      "stateMutability": "view",
      "type": "function"
    },
    {
      "inputs": [],
      "name": "getAllActiveProducts",
      "outputs": [
        {
          "components": [
            {
              "internalType": "uint256",
              "name": "id",
              "type": "uint256"
            },
            {
              "internalType": "string",
              "name": "name",
              "type": "string"
            },
            {
              "internalType": "string",
              "name": "category",
              "type": "string"
            },
            {
              "internalType": "uint256",
              "name": "price",
              "type": "uint256"
            },
            {
              "internalType": "uint256",
              "name": "quantity",
              "type": "uint256"
            },
            {
              "internalType": "address",
              "name": "farmer",
              "type": "address"
            },
            {
              "internalType": "bool",
              "name": "isActive",
              "type": "bool"
            },
            {
              "internalType": "uint256",
              "name": "timestamp",
              "type": "uint256"
            }
          ],
          "internalType": "struct AgriMarketplace.Product[]",
          "name": "",
          "type": "tuple[]"
        }
      ],
      "stateMutability": "view",
      "type": "function"
    }
  ],
  "bytecode": "0x608060405234801561001057600080fd5b50600780546001600160a01b031916331790556118fa806100326000396000f3fe6080604052600436106100fe5760003560e01c80637acc0b2011610095578063b9db15b411610064578063b9db15b4146103de578063be126a941461040b578063d0b673b41461042b578063f5e83e171461044b578063fece87721461046b57600080fd5b80637acc0b20146102a85780638da5cb5b146102dc5780639ace38c214610314578063a0440426146103cb57600080fd5b80631f16653b116100d15780631f16653b146101bf578063235db9f5146101d557806333ea3dc8146101f757806341c6fd0d1461028857600080fd5b80630a5cf042146101035780630c3d272c1461013957806312c8aa281461017957806314e887e81461019b575b600080fd5b34801561010f57600080fd5b5061012361011e36600461133d565b61048b565b604051610130919061135f565b60405180910390f35b34801561014557600080fd5b5061016961015436600461133d565b60026020526000908152604090205460ff1681565b6040519015158152602001610130565b34801561018557600080fd5b5061018e6104f7565b604051610130919061146c565b3480156101a757600080fd5b506101b160065481565b604051908152602001610130565b3480156101cb57600080fd5b506101b160055481565b3480156101e157600080fd5b506101f56101f036600461133d565b6107a2565b005b34801561020357600080fd5b506102176102123660046114ce565b610857565b60405161013091906000610100820190508251825260208301516020830152604083015160018060a01b03808216604085015280606086015116606085015250506080830151608083015260a083015160a083015260c083015160c083015260e0830151151560e083015292915050565b34801561029457600080fd5b506101b16102a33660046114e7565b610933565b3480156102b457600080fd5b506102c86102c33660046114ce565b610964565b604051610130989796959493929190611511565b3480156102e857600080fd5b506007546102fc906001600160a01b031681565b6040516001600160a01b039091168152602001610130565b34801561032057600080fd5b5061038261032f3660046114ce565b60016020819052600091825260409091208054918101546002820154600383015460048401546005850154600686015460079096015494956001600160a01b039485169594909316939192909160ff1688565b6040805198895260208901979097526001600160a01b0395861696880196909652939092166060860152608085015260a084015260c0830152151560e082015261010001610130565b6101f56103d9366004611576565b610ac6565b3480156103ea57600080fd5b506103fe6103f93660046114ce565b610e13565b6040516101309190611598565b34801561041757600080fd5b506101f561042636600461164e565b610fab565b34801561043757600080fd5b5061012361044636600461133d565b611176565b34801561045757600080fd5b506101f56104663660046114ce565b6111e0565b34801561047757600080fd5b506101b16104863660046114e7565b6112b5565b6001600160a01b0381166000908152600360209081526040918290208054835181840281018401909452808452606093928301828280156104eb57602002820191906000526020600020905b8154815260200190600101908083116104d7575b50505050509050919050565b6060600060015b600554811161054857600081815260208190526040902060050154600160a01b900460ff16156105365781610532816116d8565b9250505b80610540816116d8565b9150506104fe565b5060008167ffffffffffffffff811115610564576105646115ab565b60405190808252806020026020018201604052801561059d57816020015b61058a6112d1565b8152602001906001900390816105825790505b509050600060015b600554811161079957600081815260208190526040902060050154600160a01b900460ff1615610787576000818152602081815260409182902082516101008101909352805483526001810180549192840191610601906116f1565b80601f016020809104026020016040519081016040528092919081815260200182805461062d906116f1565b801561067a5780601f1061064f5761010080835404028352916020019161067a565b820191906000526020600020905b81548152906001019060200180831161065d57829003601f168201915b50505050508152602001600282018054610693906116f1565b80601f01602080910402602001604051908101604052809291908181526020018280546106bf906116f1565b801561070c5780601f106106e15761010080835404028352916020019161070c565b820191906000526020600020905b8154815290600101906020018083116106ef57829003601f168201915b5050509183525050600382015460208201526004820154604082015260058201546001600160a01b0381166060830152600160a01b900460ff161515608082015260069091015460a090910152835184908490811061076d5761076d61172b565b60200260200101819052508180610783906116d8565b9250505b80610791816116d8565b9150506105a5565b50909392505050565b6007546001600160a01b0316331461080b5760405162461bcd60e51b815260206004820152602160248201527f4f6e6c79206f776e65722063616e2063616c6c20746869732066756e6374696f6044820152603760f91b60648201526084015b60405180910390fd5b6001600160a01b038116600081815260026020526040808220805460ff19166001179055517f97fd55e582c49240f46c243bd781dd3df6defaecbdb51de7b250b3162bdc99ab9190a250565b6108b3604051806101000160405280600081526020016000815260200160006001600160a01b0316815260200160006001600160a01b031681526020016000815260200160008152602001600081526020016000151581525090565b5060009081526001602081815260409283902083516101008101855281548152928101549183019190915260028101546001600160a01b03908116938301939093526003810154909216606082015260048201546080820152600582015460a0820152600682015460c082015260079091015460ff16151560e082015290565b6004602052816000526040600020818154811061094f57600080fd5b90600052602060002001600091509150505481565b60006020819052908152604090208054600182018054919291610986906116f1565b80601f01602080910402602001604051908101604052809291908181526020018280546109b2906116f1565b80156109ff5780601f106109d4576101008083540402835291602001916109ff565b820191906000526020600020905b8154815290600101906020018083116109e257829003601f168201915b505050505090806002018054610a14906116f1565b80601f0160208091040260200160405190810160405280929190818152602001828054610a40906116f1565b8015610a8d5780601f10610a6257610100808354040283529160200191610a8d565b820191906000526020600020905b815481529060010190602001808311610a7057829003601f168201915b50505050600383015460048401546005850154600690950154939491939092506001600160a01b03821691600160a01b900460ff169088565b60008281526020819052604090206005810154600160a01b900460ff16610b275760405162461bcd60e51b815260206004820152601560248201527450726f64756374206973206e6f742061637469766560581b6044820152606401610802565b8181600401541015610b7b5760405162461bcd60e51b815260206004820152601f60248201527f496e73756666696369656e74207175616e7469747920617661696c61626c65006044820152606401610802565b818160030154610b8b9190611741565b341015610bd15760405162461bcd60e51b8152602060048201526014602482015273125b9cdd59999a58da595b9d081c185e5b595b9d60621b6044820152606401610802565b60068054906000610be1836116d8565b90915550506040805161010081018252600654815260208101859052339181019190915260058201546001600160a01b0316606082015260808101839052600382015460a0820190610c34908590611741565b815242602080830191909152600060409283018190526006805482526001808452848320865181559386015190840155928401516002830180546001600160a01b039283166001600160a01b0319918216179091556060860151600385018054919093169116179055608084015160048084019190915560a0850151600584015560c08501519383019390935560e0909301516007909101805491151560ff1990921691909117905582018054849290610cef90849061175e565b90915550506004810154600003610d105760058101805460ff60a01b191690555b3360009081526004602090815260408220600654815460018101835591845291832001556064610d41346002611741565b610d4b9190611771565b90506000610d59823461175e565b60058401546040519192506001600160a01b03169082156108fc029083906000818181858888f19350505050158015610d96573d6000803e3d6000fd5b506007546040516001600160a01b039091169083156108fc029084906000818181858888f19350505050158015610dd1573d6000803e3d6000fd5b50600654604051858152339187917fbd67bb7090da70936c907049a5337912b1a6489a2e4c7dd279e6ef50d6e8437b9060200160405180910390a45050505050565b610e1b6112d1565b6000828152602081815260409182902082516101008101909352805483526001810180549192840191610e4d906116f1565b80601f0160208091040260200160405190810160405280929190818152602001828054610e79906116f1565b8015610ec65780601f10610e9b57610100808354040283529160200191610ec6565b820191906000526020600020905b815481529060010190602001808311610ea957829003601f168201915b50505050508152602001600282018054610edf906116f1565b80601f0160208091040260200160405190810160405280929190818152602001828054610f0b906116f1565b8015610f585780601f10610f2d57610100808354040283529160200191610f58565b820191906000526020600020905b815481529060010190602001808311610f3b57829003601f168201915b5050509183525050600382015460208201526004820154604082015260058201546001600160a01b0381166060830152600160a01b900460ff161515608082015260069091015460a09091015292915050565b3360009081526002602052604090205460ff1661101a5760405162461bcd60e51b815260206004820152602760248201527f4f6e6c79207665726966696564206661726d6572732063616e206c6973742070604482015266726f647563747360c81b6064820152608401610802565b6005805490600061102a836116d8565b90915550506040805161010081018252600554808252602080830188815283850188905260608401879052608084018690523360a0850152600160c085018190524260e0860152600093845291839052939091208251815592519192919082019061109590826117e2565b50604082015160028201906110aa90826117e2565b5060608201516003808301919091556080830151600483015560a08301516005808401805460c08701511515600160a01b026001600160a81b03199091166001600160a01b03909416939093179290921790915560e09093015160069092019190915533600081815260209283526040808220855481546001810183559184529490922090910192909255915490517f899c32fbd27a24397979837f3acd7bfee4a37ee60b2d2f1a0643a725f39a7a499061116890889087906118a2565b60405180910390a350505050565b6001600160a01b0381166000908152600460209081526040918290208054835181840281018401909452808452606093928301828280156104eb57602002820191906000526020600020908154815260200190600101908083116104d75750505050509050919050565b600081815260016020526040902060028101546001600160a01b0316331480611215575060038101546001600160a01b031633145b6112775760405162461bcd60e51b815260206004820152602d60248201527f4f6e6c79206275796572206f72206661726d65722063616e20636f6d706c657460448201526c32903a3930b739b0b1ba34b7b760991b6064820152608401610802565b60078101805460ff1916600117905560405182907f161186077e0cdfa49fae16d54ce01ea091439dbf14243419593fa6c051c906c890600090a25050565b6003602052816000526040600020818154811061094f57600080fd5b604051806101000160405280600081526020016060815260200160608152602001600081526020016000815260200160006001600160a01b03168152602001600015158152602001600081525090565b80356001600160a01b038116811461133857600080fd5b919050565b60006020828403121561134f57600080fd5b61135882611321565b9392505050565b6020808252825182820181905260009190848201906040850190845b818110156113975783518352928401929184019160010161137b565b50909695505050505050565b6000815180845260005b818110156113c9576020818501810151868301820152016113ad565b506000602082860101526020601f19601f83011685010191505092915050565b6000610100825184526020830151816020860152611409828601826113a3565b9150506040830151848203604086015261142382826113a3565b915050606083015160608501526080830151608085015260018060a01b0360a08401511660a085015260c0830151151560c085015260e083015160e08501528091505092915050565b6000602080830181845280855180835260408601915060408160051b870101925083870160005b828110156114c157603f198886030184526114af8583516113e9565b94509285019290850190600101611493565b5092979650505050505050565b6000602082840312156114e057600080fd5b5035919050565b600080604083850312156114fa57600080fd5b61150383611321565b946020939093013593505050565b60006101008a835280602084015261152b8184018b6113a3565b9050828103604084015261153f818a6113a3565b6060840198909852505060808101949094526001600160a01b039290921660a0840152151560c083015260e0909101529392505050565b6000806040838503121561158957600080fd5b50508035926020909101359150565b60208152600061135860208301846113e9565b634e487b7160e01b600052604160045260246000fd5b600082601f8301126115d257600080fd5b813567ffffffffffffffff808211156115ed576115ed6115ab565b604051601f8301601f19908116603f01168101908282118183101715611615576116156115ab565b8160405283815286602085880101111561162e57600080fd5b836020870160208301376000602085830101528094505050505092915050565b6000806000806080858703121561166457600080fd5b843567ffffffffffffffff8082111561167c57600080fd5b611688888389016115c1565b9550602087013591508082111561169e57600080fd5b506116ab878288016115c1565b949794965050505060408301359260600135919050565b634e487b7160e01b600052601160045260246000fd5b6000600182016116ea576116ea6116c2565b5060010190565b600181811c9082168061170557607f821691505b60208210810361172557634e487b7160e01b600052602260045260246000fd5b50919050565b634e487b7160e01b600052603260045260246000fd5b8082028115828204841417611758576117586116c2565b92915050565b81810381811115611758576117586116c2565b60008261178e57634e487b7160e01b600052601260045260246000fd5b500490565b601f8211156117dd57600081815260208120601f850160051c810160208610156117ba5750805b601f850160051c820191505b818110156117d9578281556001016117c6565b5050505b505050565b815167ffffffffffffffff8111156117fc576117fc6115ab565b6118108161180a84546116f1565b84611793565b602080601f831160018114611845576000841561182d5750858301515b600019600386901b1c1916600185901b1785556117d9565b600085815260208120601f198616915b8281101561187457888601518255948401946001909101908401611855565b50858210156118925787850151600019600388901b60f8161c191681555b5050505050600190811b01905550565b6040815260006118b560408301856113a3565b9050826020830152939250505056fea26469706673582212206c280f1e39edd74db5e99ffe297767121f64ab9022768cb9eb475ff1aae1506664736f6c63430008130033",
  "immutableReferences": {},
  "source": "// SPDX-License-Identifier: MIT\npragma solidity ^0.8.0;\ncontract AgriMarketplace {\n    struct Product {\n        uint256 id;\n        string name;\n        string category;\n        uint256 price;\n        uint256 quantity;\n        address farmer;\n        bool isActive;\n        uint256 timestamp;\n    }\n    \n    struct Transaction {\n        uint256 id;\n        uint256 productId;\n        address buyer;\n        address farmer;\n        uint256 quantity;\n        uint256 totalPrice;\n        uint256 timestamp;\n        bool isCompleted;\n    }\n    \n    mapping(uint256 => Product) public products;\n    mapping(uint256 => Transaction) public transactions;\n    mapping(address => bool) public verifiedFarmers;\n    mapping(address => uint256[]) public farmerProducts;\n    mapping(address => uint256[]) public buyerTransactions;\n    \n    uint256 public productCounter;\n    uint256 public transactionCounter;\n    \n    address public owner;\n    \n    event ProductListed(uint256 indexed productId, address indexed farmer, string name, uint256 price);\n    event ProductPurchased(uint256 indexed transactionId, uint256 indexed productId, address indexed buyer, uint256 quantity);\n    event FarmerVerified(address indexed farmer);\n    event TransactionCompleted(uint256 indexed transactionId);\n    \n    modifier onlyOwner() {\n        require(msg.sender == owner, \"Only owner can call this function\");\n        _;\n    }\n    \n    modifier onlyVerifiedFarmer() {\n        require(verifiedFarmers[msg.sender], \"Only verified farmers can list products\");\n        _;\n    }\n    \n    constructor() {\n        owner = msg.sender;\n    }\n    \n    function verifyFarmer(address farmer) public onlyOwner {\n        verifiedFarmers[farmer] = true;\n        emit FarmerVerified(farmer);\n    }\n    \n    function listProduct(\n        string memory _name,\n        string memory _category,\n        uint256 _price,\n        uint256 _quantity\n    ) public onlyVerifiedFarmer {\n        productCounter++;\n        \n        products[productCounter] = Product({\n            id: productCounter,\n            name: _name,\n            category: _category,\n            price: _price,\n            quantity: _quantity,\n            farmer: msg.sender,\n            isActive: true,\n            timestamp: block.timestamp\n        });\n        \n        farmerProducts[msg.sender].push(productCounter);\n        \n        emit ProductListed(productCounter, msg.sender, _name, _price);\n    }\n    \n    function purchaseProduct(uint256 _productId, uint256 _quantity) public payable {\n        Product storage product = products[_productId];\n        \n        require(product.isActive, \"Product is not active\");\n        require(product.quantity >= _quantity, \"Insufficient quantity available\");\n        require(msg.value >= product.price * _quantity, \"Insufficient payment\");\n        \n        transactionCounter++;\n        \n        transactions[transactionCounter] = Transaction({\n            id: transactionCounter,\n            productId: _productId,\n            buyer: msg.sender,\n            farmer: product.farmer,\n            quantity: _quantity,\n            totalPrice: product.price * _quantity,\n            timestamp: block.timestamp,\n            isCompleted: false\n        });\n        \n        product.quantity -= _quantity;\n        if (product.quantity == 0) {\n            product.isActive = false;\n        }\n        \n        buyerTransactions[msg.sender].push(transactionCounter);\n        \n        // Transfer payment to farmer (minus platform fee)\n        uint256 platformFee = (msg.value * 2) / 100; // 2% platform fee\n        uint256 farmerPayment = msg.value - platformFee;\n        \n        payable(product.farmer).transfer(farmerPayment);\n        payable(owner).transfer(platformFee);\n        \n        emit ProductPurchased(transactionCounter, _productId, msg.sender, _quantity);\n    }\n    \n    function completeTransaction(uint256 _transactionId) public {\n        Transaction storage transaction = transactions[_transactionId];\n        \n        require(\n            msg.sender == transaction.buyer || msg.sender == transaction.farmer,\n            \"Only buyer or farmer can complete transaction\"\n        );\n        \n        transaction.isCompleted = true;\n        \n        emit TransactionCompleted(_transactionId);\n    }\n    \n    function getProduct(uint256 _productId) public view returns (Product memory) {\n        return products[_productId];\n    }\n    \n    function getTransaction(uint256 _transactionId) public view returns (Transaction memory) {\n        return transactions[_transactionId];\n    }\n    \n    function getFarmerProducts(address _farmer) public view returns (uint256[] memory) {\n        return farmerProducts[_farmer];\n    }\n    \n    function getBuyerTransactions(address _buyer) public view returns (uint256[] memory) {\n        return buyerTransactions[_buyer];\n    }\n    \n    function getAllActiveProducts() public view returns (Product[] memory) {\n        uint256 activeCount = 0;\n        \n        // Count active products\n        for (uint256 i = 1; i <= productCounter; i++) {\n            if (products[i].isActive) {\n                activeCount++;\n            }\n        }\n        \n        Product[] memory activeProducts = new Product[](activeCount);\n        uint256 index = 0;\n        \n        // Fill array with active products\n        for (uint256 i = 1; i <= productCounter; i++) {\n            if (products[i].isActive) {\n                activeProducts[index] = products[i];\n                index++;\n            }\n        }\n        \n        return activeProducts;\n    }\n}",
  "sourcePath": "C:\\Users\\SKY ELECTRONIC\\Downloads\\v4\\v5\\blockchain\\contracts\\AgriMarketplace.sol",
  "compiler": {
    "name": "solc",
    "version": "0.8.19+commit.7dd6d404.Emscripten.clang"
  },
  "schemaVersion": "3.4.16",
  "updatedAt": "2025-10-08T09:10:27.830Z",
  "devdoc": {
    "kind": "dev",
    "methods": {},
    "version": 1
  },
  "userdoc": {
    "kind": "user",
    "methods": {},
    "version": 1
  }
}