{
  "contractName": "AgriMarketplace",
  "abi": [
    {
      "inputs": [],
      "stateMutability": "nonpayable",
      "type": "constructor"
    },
    {
      "anonymous": false,
      "inputs": [
        {
          "indexed": true,
          "internalType": "address",
          "name": "farmer",
          "type": "address"
        }
      ],
      "name": "FarmerVerified",
      "type": "event"
    },
    {
      "anonymous": false,
      "inputs": [
        {
          "indexed": true,
          "internalType": "bytes32",
          "name": "orderHash",
          "type": "bytes32"
        },
        {
          "indexed": true,
          "internalType": "address",
          "name": "buyer",
          "type": "address"
        },
        {
          "indexed": true,
          "internalType": "address",
          "name": "farmer",
          "type": "address"
        },
        {
          "indexed": false,
          "internalType": "bytes32",
          "name": "detailsHash",
          "type": "bytes32"
        }
      ],
      "name": "PaymentProofRecorded",
      "type": "event"
    },
    {
      "anonymous": false,
      "inputs": [
        {
          "indexed": true,
          "internalType": "uint256",
          "name": "productId",
          "type": "uint256"
        },
        {
          "indexed": true,
          "internalType": "address",
          "name": "farmer",
          "type": "address"
        },
        {
          "indexed": false,
          "internalType": "string",
          "name": "name",
          "type": "string"
        },
        {
          "indexed": false,
          "internalType": "uint256",
          "name": "price",
          "type": "uint256"
        }
      ],
      "name": "ProductListed",
      "type": "event"
    },
    {
      "anonymous": false,
      "inputs": [
        {
          "indexed": true,
          "internalType": "uint256",
          "name": "transactionId",
          "type": "uint256"
        },
        {
          "indexed": true,
          "internalType": "uint256",
          "name": "productId",
          "type": "uint256"
        },
        {
          "indexed": true,
          "internalType": "address",
          "name": "buyer",
          "type": "address"
        },
        {
          "indexed": false,
          "internalType": "uint256",
          "name": "quantity",
          "type": "uint256"
        }
      ],
      "name": "ProductPurchased",
      "type": "event"
    },
    {
      "anonymous": false,
      "inputs": [
        {
          "indexed": true,
          "internalType": "uint256",
          "name": "transactionId",
          "type": "uint256"
        }
      ],
      "name": "TransactionCompleted",
      "type": "event"
    },
    {
      "inputs": [
        {
          "internalType": "address",
          "name": "",
          "type": "address"
        },
        {
          "internalType": "uint256",
          "name": "",
          "type": "uint256"
        }
      ],
      "name": "buyerTransactions",
      "outputs": [
        {
          "internalType": "uint256",
          "name": "",
          "type": "uint256"
        }
      ],
      "stateMutability": "view",
      "type": "function"
    },
    {
      "inputs": [
        {
          "internalType": "address",
          "name": "",
          "type": "address"
        },
        {
          "internalType": "uint256",
          "name": "",
          "type": "uint256"
        }
      ],
      "name": "farmerProducts",
      "outputs": [
        {
          "internalType": "uint256",
          "name": "",
          "type": "uint256"
        }
      ],
      "stateMutability": "view",
      "type": "function"
    },
    {
      "inputs": [],
      "name": "owner",
      "outputs": [
        {
          "internalType": "address",
          "name": "",
          "type": "address"
        }
      ],
      "stateMutability": "view",
      "type": "function"
    },
    {
      "inputs": [
        {
          "internalType": "bytes32",
          "name": "",
          "type": "bytes32"
        }
      ],
      "name": "paymentProofs",
      "outputs": [
        {
          "internalType": "bytes32",
          "name": "orderHash",
          "type": "bytes32"
        },
        {
          "internalType": "bytes32",
          "name": "detailsHash",
          "type": "bytes32"
        },
        {
          "internalType": "address",
          "name": "buyer",
          "type": "address"
        },
        {
          "internalType": "address",
          "name": "farmer",
          "type": "address"
        },
        {
          "internalType": "uint256",
          "name": "timestamp",
          "type": "uint256"
        }
      ],
      "stateMutability": "view",
      "type": "function"
    },
    {
      "inputs": [],
      "name": "productCounter",
      "outputs": [
        {
          "internalType": "uint256",
          "name": "",
          "type": "uint256"
        }
      ],
      "stateMutability": "view",
      "type": "function"
    },
    {
      "inputs": [
        {
          "internalType": "uint256",
          "name": "",
          "type": "uint256"
        }
      ],
      "name": "products",
      "outputs": [
        {
          "internalType": "uint256",
          "name": "id",
          "type": "uint256"
        },
        {
          "internalType": "string",
          "name": "name",
          "type": "string"
        },
        {
          "internalType": "string",
          "name": "category",
          "type": "string"
        },
        {
          "internalType": "uint256",
          "name": "price",
          "type": "uint256"
        },
        {
          "internalType": "uint256",
          "name": "quantity",
          "type": "uint256"
        },
        {
          "internalType": "address",
          "name": "farmer",
          "type": "address"
        },
        {
          "internalType": "bool",
          "name": "isActive",
          "type": "bool"
        },
        {
          "internalType": "uint256",
          "name": "timestamp",
          "type": "uint256"
        }
      ],
      "stateMutability": "view",
      "type": "function"
    },
    {
      "inputs": [],
      "name": "transactionCounter",
      "outputs": [
        {
          "internalType": "uint256",
          "name": "",
          "type": "uint256"
        }
      ],
      "stateMutability": "view",
      "type": "function"
    },
    {
      "inputs": [
        {
          "internalType": "uint256",
          "name": "",
          "type": "uint256"
        }
      ],
      "name": "transactions",
      "outputs": [
        {
          "internalType": "uint256",
          "name": "id",
          "type": "uint256"
        },
        {
          "internalType": "uint256",
          "name": "productId",
          "type": "uint256"
        },
        {
          "internalType": "address",
          "name": "buyer",
          "type": "address"
        },
        {
          "internalType": "address",
          "name": "farmer",
          "type": "address"
        },
        {
          "internalType": "uint256",
          "name": "quantity",
          "type": "uint256"
        },
        {
          "internalType": "uint256",
          "name": "totalPrice",
          "type": "uint256"
        },
        {
          "internalType": "uint256",
          "name": "timestamp",
          "type": "uint256"
        },
        {
          "internalType": "bool",
          "name": "isCompleted",
          "type": "bool"
        },
        {
          "internalType": "bool",
          "name": "isEscrowLocked",
          "type": "bool"
        }
      ],
      "stateMutability": "view",
      "type": "function"
    },
    {
      "inputs": [
        {
          "internalType": "address",
          "name": "",
          "type": "address"
        }
      ],
      "name": "verifiedFarmers",
      "outputs": [
        {
          "internalType": "bool",
          "name": "",
          "type": "bool"
        }
      ],
      "stateMutability": "view",
      "type": "function"
    },
    {
      "inputs": [
        {
          "internalType": "bytes32",
          "name": "orderHash",
          "type": "bytes32"
        },
        {
          "internalType": "bytes32",
          "name": "detailsHash",
          "type": "bytes32"
        },
        {
          "internalType": "address",
          "name": "buyer",
          "type": "address"
        },
        {
          "internalType": "address",
          "name": "farmer",
          "type": "address"
        },
        {
          "internalType": "bytes",
          "name": "buyerSig",
          "type": "bytes"
        },
        {
          "internalType": "bytes",
          "name": "farmerSig",
          "type": "bytes"
        }
      ],
      "name": "recordPaymentProof",
      "outputs": [],
      "stateMutability": "nonpayable",
      "type": "function"
    },
    {
      "inputs": [
        {
          "internalType": "address",
          "name": "farmer",
          "type": "address"
        }
      ],
      "name": "verifyFarmer",
      "outputs": [],
      "stateMutability": "nonpayable",
      "type": "function"
    },
    {
      "inputs": [
        {
          "internalType": "string",
          "name": "_name",
          "type": "string"
        },
        {
          "internalType": "string",
          "name": "_category",
          "type": "string"
        },
        {
          "internalType": "uint256",
          "name": "_price",
          "type": "uint256"
        },
        {
          "internalType": "uint256",
          "name": "_quantity",
          "type": "uint256"
        }
      ],
      "name": "listProduct",
      "outputs": [],
      "stateMutability": "nonpayable",
      "type": "function"
    },
    {
      "inputs": [
        {
          "internalType": "uint256",
          "name": "_productId",
          "type": "uint256"
        },
        {
          "internalType": "uint256",
          "name": "_quantity",
          "type": "uint256"
        }
      ],
      "name": "purchaseProduct",
      "outputs": [],
      "stateMutability": "payable",
      "type": "function"
    },
    {
      "inputs": [
        {
          "internalType": "uint256",
          "name": "_transactionId",
          "type": "uint256"
        }
      ],
      "name": "completeTransaction",
      "outputs": [],
      "stateMutability": "nonpayable",
      "type": "function"
    },
    {
      "inputs": [
        {
          "internalType": "uint256",
          "name": "_productId",
          "type": "uint256"
        }
      ],
      "name": "getProduct",
      "outputs": [
        {
          "components": [
            {
              "internalType": "uint256",
              "name": "id",
              "type": "uint256"
            },
            {
              "internalType": "string",
              "name": "name",
              "type": "string"
            },
            {
              "internalType": "string",
              "name": "category",
              "type": "string"
            },
            {
              "internalType": "uint256",
              "name": "price",
              "type": "uint256"
            },
            {
              "internalType": "uint256",
              "name": "quantity",
              "type": "uint256"
            },
            {
              "internalType": "address",
              "name": "farmer",
              "type": "address"
            },
            {
              "internalType": "bool",
              "name": "isActive",
              "type": "bool"
            },
            {
              "internalType": "uint256",
              "name": "timestamp",
              "type": "uint256"
            }
          ],
          "internalType": "struct AgriMarketplace.Product",
          "name": "",
          "type": "tuple"
        }
      ],
      "stateMutability": "view",
      "type": "function"
    },
    {
      "inputs": [
        {
          "internalType": "uint256",
          "name": "_transactionId",
          "type": "uint256"
        }
      ],
      "name": "getTransaction",
      "outputs": [
        {
          "components": [
            {
              "internalType": "uint256",
              "name": "id",
              "type": "uint256"
            },
            {
              "internalType": "uint256",
              "name": "productId",
              "type": "uint256"
            },
            {
              "internalType": "address",
              "name": "buyer",
              "type": "address"
            },
            {
              "internalType": "address",
              "name": "farmer",
              "type": "address"
            },
            {
              "internalType": "uint256",
              "name": "quantity",
              "type": "uint256"
            },
            {
              "internalType": "uint256",
              "name": "totalPrice",
              "type": "uint256"
            },
            {
              "internalType": "uint256",
              "name": "timestamp",
              "type": "uint256"
            },
            {
              "internalType": "bool",
              "name": "isCompleted",
              "type": "bool"
            },
            {
              "internalType": "bool",
              "name": "isEscrowLocked",
              "type": "bool"
            }
          ],
          "internalType": "struct AgriMarketplace.Transaction",
          "name": "",
          "type": "tuple"
        }
      ],
      "stateMutability": "view",
      "type": "function"
    },
    {
      "inputs": [
        {
          "internalType": "address",
          "name": "_farmer",
          "type": "address"
        }
      ],
      "name": "getFarmerProducts",
      "outputs": [
        {
          "internalType": "uint256[]",
          "name": "",
          "type": "uint256[]"
        }
      ],
      "stateMutability": "view",
      "type": "function"
    },
    {
      "inputs": [
        {
          "internalType": "address",
          "name": "_buyer",
          "type": "address"
        }
      ],
      "name": "getBuyerTransactions",
      "outputs": [
        {
          "internalType": "uint256[]",
          "name": "",
          "type": "uint256[]"
        }
      ],
      "stateMutability": "view",
      "type": "function"
    },
    {
      "inputs": [],
      "name": "getAllActiveProducts",
      "outputs": [
        {
          "components": [
            {
              "internalType": "uint256",
              "name": "id",
              "type": "uint256"
            },
            {
              "internalType": "string",
              "name": "name",
              "type": "string"
            },
            {
              "internalType": "string",
              "name": "category",
              "type": "string"
            },
            {
              "internalType": "uint256",
              "name": "price",
              "type": "uint256"
            },
            {
              "internalType": "uint256",
              "name": "quantity",
              "type": "uint256"
            },
            {
              "internalType": "address",
              "name": "farmer",
              "type": "address"
            },
            {
              "internalType": "bool",
              "name": "isActive",
              "type": "bool"
            },
            {
              "internalType": "uint256",
              "name": "timestamp",
              "type": "uint256"
            }
          ],
          "internalType": "struct AgriMarketplace.Product[]",
          "name": "",
          "type": "tuple[]"
        }
      ],
      "stateMutability": "view",
      "type": "function"
    }
  ],
  "bytecode": "0x608060405234801561001057600080fd5b50600880546001600160a01b031916331790556120f5806100326000396000f3fe6080604052600436106101145760003560e01c80637acc0b20116100a0578063be126a9411610064578063be126a94146103f1578063c0ad46a514610411578063d0b673b41461049c578063f5e83e17146104bc578063fece8772146104dc57600080fd5b80637acc0b201461027a5780638da5cb5b146102ae5780639ace38c2146102e6578063a0440426146103b1578063b9db15b4146103c457600080fd5b80631e04f2b0116100e75780631e04f2b0146101d55780631f16653b146101f7578063235db9f51461020d57806333ea3dc81461022d57806341c6fd0d1461025a57600080fd5b80630a5cf042146101195780630c3d272c1461014f57806312c8aa281461018f57806314e887e8146101b1575b600080fd5b34801561012557600080fd5b506101396101343660046119bc565b6104fc565b60405161014691906119de565b60405180910390f35b34801561015b57600080fd5b5061017f61016a3660046119bc565b60036020526000908152604090205460ff1681565b6040519015158152602001610146565b34801561019b57600080fd5b506101a4610568565b6040516101469190611aeb565b3480156101bd57600080fd5b506101c760075481565b604051908152602001610146565b3480156101e157600080fd5b506101f56101f0366004611b96565b610813565b005b34801561020357600080fd5b506101c760065481565b34801561021957600080fd5b506101f56102283660046119bc565b610b6b565b34801561023957600080fd5b5061024d610248366004611c3a565b610c1b565b6040516101469190611c53565b34801561026657600080fd5b506101c7610275366004611ccf565b610d10565b34801561028657600080fd5b5061029a610295366004611c3a565b610d41565b604051610146989796959493929190611cf9565b3480156102ba57600080fd5b506008546102ce906001600160a01b031681565b6040516001600160a01b039091168152602001610146565b3480156102f257600080fd5b5061035d610301366004611c3a565b60016020819052600091825260409091208054918101546002820154600383015460048401546005850154600686015460079096015494956001600160a01b039485169594909316939192909160ff8082169161010090041689565b60408051998a5260208a01989098526001600160a01b0396871697890197909752949093166060870152608086019190915260a085015260c0840152151560e0830152151561010082015261012001610146565b6101f56103bf366004611d5e565b610ea3565b3480156103d057600080fd5b506103e46103df366004611c3a565b611171565b6040516101469190611d80565b3480156103fd57600080fd5b506101f561040c366004611e36565b611309565b34801561041d57600080fd5b5061046861042c366004611c3a565b6002602081905260009182526040909120805460018201549282015460038301546004909301549193926001600160a01b039182169291169085565b6040805195865260208601949094526001600160a01b0392831693850193909352166060830152608082015260a001610146565b3480156104a857600080fd5b506101396104b73660046119bc565b6114d2565b3480156104c857600080fd5b506101f56104d7366004611c3a565b61153c565b3480156104e857600080fd5b506101c76104f7366004611ccf565b611782565b6001600160a01b03811660009081526004602090815260409182902080548351818402810184019094528084526060939283018282801561055c57602002820191906000526020600020905b815481526020019060010190808311610548575b50505050509050919050565b6060600060015b60065481116105b957600081815260208190526040902060050154600160a01b900460ff16156105a757816105a381611ec0565b9250505b806105b181611ec0565b91505061056f565b5060008167ffffffffffffffff8111156105d5576105d5611d93565b60405190808252806020026020018201604052801561060e57816020015b6105fb611950565b8152602001906001900390816105f35790505b509050600060015b600654811161080a57600081815260208190526040902060050154600160a01b900460ff16156107f857600081815260208181526040918290208251610100810190935280548352600181018054919284019161067290611ed9565b80601f016020809104026020016040519081016040528092919081815260200182805461069e90611ed9565b80156106eb5780601f106106c0576101008083540402835291602001916106eb565b820191906000526020600020905b8154815290600101906020018083116106ce57829003601f168201915b5050505050815260200160028201805461070490611ed9565b80601f016020809104026020016040519081016040528092919081815260200182805461073090611ed9565b801561077d5780601f106107525761010080835404028352916020019161077d565b820191906000526020600020905b81548152906001019060200180831161076057829003601f168201915b5050509183525050600382015460208201526004820154604082015260058201546001600160a01b0381166060830152600160a01b900460ff161515608082015260069091015460a09091015283518490849081106107de576107de611f13565b602002602001018190525081806107f490611ec0565b9250505b8061080281611ec0565b915050610616565b50909392505050565b600088815260026020526040902060040154156108705760405162461bcd60e51b8152602060048201526016602482015275141c9bdbd988185b1c9958591e481c9958dbdc99195960521b60448201526064015b60405180910390fd5b6001600160a01b0386161580159061089057506001600160a01b03851615155b6108d05760405162461bcd60e51b8152602060048201526011602482015270496e76616c69642061646472657373657360781b6044820152606401610867565b60408051602081018a905290810188905260009060600160405160208183030381529060405280519060200120905060006109418287878080601f01602080910402602001604051908101604052809392919081815260200183838082843760009201919091525061179e92505050565b905060006109858386868080601f01602080910402602001604051908101604052809392919081815260200183838082843760009201919091525061179e92505050565b9050886001600160a01b0316826001600160a01b0316146109e85760405162461bcd60e51b815260206004820152601760248201527f4275796572207369676e617475726520696e76616c69640000000000000000006044820152606401610867565b876001600160a01b0316816001600160a01b031614610a495760405162461bcd60e51b815260206004820152601860248201527f4661726d6572207369676e617475726520696e76616c696400000000000000006044820152606401610867565b6040518060a001604052808c81526020018b81526020018a6001600160a01b03168152602001896001600160a01b0316815260200142815250600260008d8152602001908152602001600020600082015181600001556020820151816001015560408201518160020160006101000a8154816001600160a01b0302191690836001600160a01b0316021790555060608201518160030160006101000a8154816001600160a01b0302191690836001600160a01b0316021790555060808201518160040155905050876001600160a01b0316896001600160a01b03168c7f4fe473d28a99c0a49fb5c7ffdb01bca8418b5cd38995e781035fd554dd3dc6ac8d604051610b5691815260200190565b60405180910390a45050505050505050505050565b6008546001600160a01b03163314610bcf5760405162461bcd60e51b815260206004820152602160248201527f4f6e6c79206f776e65722063616e2063616c6c20746869732066756e6374696f6044820152603760f91b6064820152608401610867565b6001600160a01b038116600081815260036020526040808220805460ff19166001179055517f97fd55e582c49240f46c243bd781dd3df6defaecbdb51de7b250b3162bdc99ab9190a250565b610c80604051806101200160405280600081526020016000815260200160006001600160a01b0316815260200160006001600160a01b031681526020016000815260200160008152602001600081526020016000151581526020016000151581525090565b5060009081526001602081815260409283902083516101208101855281548152928101549183019190915260028101546001600160a01b03908116938301939093526003810154909216606082015260048201546080820152600582015460a0820152600682015460c082015260079091015460ff808216151560e0840152610100918290041615159082015290565b60056020528160005260406000208181548110610d2c57600080fd5b90600052602060002001600091509150505481565b60006020819052908152604090208054600182018054919291610d6390611ed9565b80601f0160208091040260200160405190810160405280929190818152602001828054610d8f90611ed9565b8015610ddc5780601f10610db157610100808354040283529160200191610ddc565b820191906000526020600020905b815481529060010190602001808311610dbf57829003601f168201915b505050505090806002018054610df190611ed9565b80601f0160208091040260200160405190810160405280929190818152602001828054610e1d90611ed9565b8015610e6a5780601f10610e3f57610100808354040283529160200191610e6a565b820191906000526020600020905b815481529060010190602001808311610e4d57829003601f168201915b50505050600383015460048401546005850154600690950154939491939092506001600160a01b03821691600160a01b900460ff169088565b60008281526020819052604090206005810154600160a01b900460ff16610f045760405162461bcd60e51b815260206004820152601560248201527450726f64756374206973206e6f742061637469766560581b6044820152606401610867565b8181600401541015610f585760405162461bcd60e51b815260206004820152601f60248201527f496e73756666696369656e74207175616e7469747920617661696c61626c65006044820152606401610867565b818160030154610f689190611f29565b341015610fae5760405162461bcd60e51b8152602060048201526014602482015273125b9cdd59999a58da595b9d081c185e5b595b9d60621b6044820152606401610867565b60078054906000610fbe83611ec0565b90915550506040805161012081018252600754815260208101859052339181019190915260058201546001600160a01b0316606082015260808101839052600382015460a0820190611011908590611f29565b8152426020808301919091526000604080840182905260016060948501819052600780548452818552828420875181559487015191850191909155908501516002840180546001600160a01b03199081166001600160a01b039384161790915594860151600385018054909616911617909355608084015160048084019190915560a0850151600584015560c0850151600684015560e08501519290930180546101009586015161ffff1990911693151561ff0019169390931792151590940291909117909255820180548492906110ea908490611f40565b9091555050600481015460000361110b5760058101805460ff60a01b191690555b3360008181526005602090815260408083206007805482546001810184559286529484902090910193909355915491518581528692917fbd67bb7090da70936c907049a5337912b1a6489a2e4c7dd279e6ef50d6e8437b910160405180910390a4505050565b611179611950565b60008281526020818152604091829020825161010081019093528054835260018101805491928401916111ab90611ed9565b80601f01602080910402602001604051908101604052809291908181526020018280546111d790611ed9565b80156112245780601f106111f957610100808354040283529160200191611224565b820191906000526020600020905b81548152906001019060200180831161120757829003601f168201915b5050505050815260200160028201805461123d90611ed9565b80601f016020809104026020016040519081016040528092919081815260200182805461126990611ed9565b80156112b65780601f1061128b576101008083540402835291602001916112b6565b820191906000526020600020905b81548152906001019060200180831161129957829003601f168201915b5050509183525050600382015460208201526004820154604082015260058201546001600160a01b0381166060830152600160a01b900460ff161515608082015260069091015460a09091015292915050565b3360009081526003602052604090205460ff166113785760405162461bcd60e51b815260206004820152602760248201527f4f6e6c79207665726966696564206661726d6572732063616e206c6973742070604482015266726f647563747360c81b6064820152608401610867565b6006805490600061138883611ec0565b90915550506040805161010081018252600654808252602080830188815283850188905260608401879052608084018690523360a0850152600160c085018190524260e086015260009384529183905293909120825181559251919291908201906113f39082611fa2565b50604082015160028201906114089082611fa2565b5060608201516003820155608082015160048083019190915560a083015160058301805460c08601511515600160a01b026001600160a81b03199091166001600160a01b039093169290921791909117905560e09092015160069182015533600081815260209384526040808220845481546001810183559184529590922090910193909355905491519091907f899c32fbd27a24397979837f3acd7bfee4a37ee60b2d2f1a0643a725f39a7a49906114c49088908790612062565b60405180910390a350505050565b6001600160a01b03811660009081526005602090815260409182902080548351818402810184019094528084526060939283018282801561055c57602002820191906000526020600020908154815260200190600101908083116105485750505050509050919050565b600081815260016020526040902060028101546001600160a01b0316331480611571575060038101546001600160a01b031633145b8061158657506008546001600160a01b031633145b6115f05760405162461bcd60e51b815260206004820152603560248201527f4f6e6c792062757965722c206661726d65722c206f72206f776e65722063616e6044820152741031b7b6b83632ba32903a3930b739b0b1ba34b7b760591b6064820152608401610867565b600781015460ff16156116455760405162461bcd60e51b815260206004820152601d60248201527f5472616e73616374696f6e20616c726561647920636f6d706c657465640000006044820152606401610867565b6007810154610100900460ff166116945760405162461bcd60e51b815260206004820152601360248201527246756e6473206e6f7420696e20657363726f7760681b6044820152606401610867565b60078101805461ffff1916600117905560058101546000906064906116ba906002611f29565b6116c49190612084565b905060008183600501546116d89190611f40565b60038401546040519192506001600160a01b03169082156108fc029083906000818181858888f19350505050158015611715573d6000803e3d6000fd5b506008546040516001600160a01b039091169083156108fc029084906000818181858888f19350505050158015611750573d6000803e3d6000fd5b5060405184907f161186077e0cdfa49fae16d54ce01ea091439dbf14243419593fa6c051c906c890600090a250505050565b60046020528160005260406000208181548110610d2c57600080fd5b6000806000806117ad85611870565b925092509250600161180c876040517f19457468657265756d205369676e6564204d6573736167653a0a3332000000006020820152603c8101829052600090605c01604051602081830303815290604052805190602001209050919050565b6040805160008152602081018083529290925260ff841690820152606081018590526080810184905260a0016020604051602081039080840390855afa15801561185a573d6000803e3d6000fd5b5050506020604051035193505050505b92915050565b600080600083516041146118c65760405162461bcd60e51b815260206004820152601860248201527f496e76616c6964207369676e6174757265206c656e67746800000000000000006044820152606401610867565b50505060208101516040820151606083015160001a601b8110156118f2576118ef601b826120a6565b90505b8060ff16601b148061190757508060ff16601c145b6119495760405162461bcd60e51b815260206004820152601360248201527224b73b30b634b21039b4b3b730ba3ab932903b60691b6044820152606401610867565b9193909250565b604051806101000160405280600081526020016060815260200160608152602001600081526020016000815260200160006001600160a01b03168152602001600015158152602001600081525090565b80356001600160a01b03811681146119b757600080fd5b919050565b6000602082840312156119ce57600080fd5b6119d7826119a0565b9392505050565b6020808252825182820181905260009190848201906040850190845b81811015611a16578351835292840192918401916001016119fa565b50909695505050505050565b6000815180845260005b81811015611a4857602081850181015186830182015201611a2c565b506000602082860101526020601f19601f83011685010191505092915050565b6000610100825184526020830151816020860152611a8882860182611a22565b91505060408301518482036040860152611aa28282611a22565b915050606083015160608501526080830151608085015260018060a01b0360a08401511660a085015260c0830151151560c085015260e083015160e08501528091505092915050565b6000602080830181845280855180835260408601915060408160051b870101925083870160005b82811015611b4057603f19888603018452611b2e858351611a68565b94509285019290850190600101611b12565b5092979650505050505050565b60008083601f840112611b5f57600080fd5b50813567ffffffffffffffff811115611b7757600080fd5b602083019150836020828501011115611b8f57600080fd5b9250929050565b60008060008060008060008060c0898b031215611bb257600080fd5b8835975060208901359650611bc960408a016119a0565b9550611bd760608a016119a0565b9450608089013567ffffffffffffffff80821115611bf457600080fd5b611c008c838d01611b4d565b909650945060a08b0135915080821115611c1957600080fd5b50611c268b828c01611b4d565b999c989b5096995094979396929594505050565b600060208284031215611c4c57600080fd5b5035919050565b6000610120820190508251825260208301516020830152604083015160018060a01b03808216604085015280606086015116606085015250506080830151608083015260a083015160a083015260c083015160c083015260e0830151611cbd60e084018215159052565b50610100928301511515919092015290565b60008060408385031215611ce257600080fd5b611ceb836119a0565b946020939093013593505050565b60006101008a8352806020840152611d138184018b611a22565b90508281036040840152611d27818a611a22565b6060840198909852505060808101949094526001600160a01b039290921660a0840152151560c083015260e0909101529392505050565b60008060408385031215611d7157600080fd5b50508035926020909101359150565b6020815260006119d76020830184611a68565b634e487b7160e01b600052604160045260246000fd5b600082601f830112611dba57600080fd5b813567ffffffffffffffff80821115611dd557611dd5611d93565b604051601f8301601f19908116603f01168101908282118183101715611dfd57611dfd611d93565b81604052838152866020858801011115611e1657600080fd5b836020870160208301376000602085830101528094505050505092915050565b60008060008060808587031215611e4c57600080fd5b843567ffffffffffffffff80821115611e6457600080fd5b611e7088838901611da9565b95506020870135915080821115611e8657600080fd5b50611e9387828801611da9565b949794965050505060408301359260600135919050565b634e487b7160e01b600052601160045260246000fd5b600060018201611ed257611ed2611eaa565b5060010190565b600181811c90821680611eed57607f821691505b602082108103611f0d57634e487b7160e01b600052602260045260246000fd5b50919050565b634e487b7160e01b600052603260045260246000fd5b808202811582820484141761186a5761186a611eaa565b8181038181111561186a5761186a611eaa565b601f821115611f9d57600081815260208120601f850160051c81016020861015611f7a5750805b601f850160051c820191505b81811015611f9957828155600101611f86565b5050505b505050565b815167ffffffffffffffff811115611fbc57611fbc611d93565b611fd081611fca8454611ed9565b84611f53565b602080601f8311600181146120055760008415611fed5750858301515b600019600386901b1c1916600185901b178555611f99565b600085815260208120601f198616915b8281101561203457888601518255948401946001909101908401612015565b50858210156120525787850151600019600388901b60f8161c191681555b5050505050600190811b01905550565b6040815260006120756040830185611a22565b90508260208301529392505050565b6000826120a157634e487b7160e01b600052601260045260246000fd5b500490565b60ff818116838216019081111561186a5761186a611eaa56fea264697066735822122062eb0e03ffa37a61f4a1c619c6e0aded3365272d6c857d1e9ac52dd83bbcb60064736f6c63430008130033",
  "immutableReferences": {},
  "source": "// SPDX-License-Identifier: MIT\r\npragma solidity ^0.8.0;\r\ncontract AgriMarketplace {\r\n    struct Product {\r\n        uint256 id;\r\n        string name;\r\n        string category;\r\n        uint256 price;\r\n        uint256 quantity;\r\n        address farmer;\r\n        bool isActive;\r\n        uint256 timestamp;\r\n    }\r\n    \r\n    struct Transaction {\r\n        uint256 id;\r\n        uint256 productId;\r\n        address buyer;\r\n        address farmer;\r\n        uint256 quantity;\r\n        uint256 totalPrice;\r\n        uint256 timestamp;\r\n        bool isCompleted;\r\n        bool isEscrowLocked;\r\n    }\r\n\r\n    // Off-chain payment proof (Airtel / bank transfer / etc.) for non-repudiation.\r\n    // The proof is accepted only if BOTH buyer and farmer signatures are valid.\r\n    struct PaymentProof {\r\n        bytes32 orderHash;     // hash of off-chain order id (bytes32)\r\n        bytes32 detailsHash;   // hash of off-chain payment details (bytes32)\r\n        address buyer;\r\n        address farmer;\r\n        uint256 timestamp;\r\n    }\r\n    \r\n    mapping(uint256 => Product) public products;\r\n    mapping(uint256 => Transaction) public transactions;\r\n    mapping(bytes32 => PaymentProof) public paymentProofs;\r\n    mapping(address => bool) public verifiedFarmers;\r\n    mapping(address => uint256[]) public farmerProducts;\r\n    mapping(address => uint256[]) public buyerTransactions;\r\n    \r\n    uint256 public productCounter;\r\n    uint256 public transactionCounter;\r\n    \r\n    address public owner;\r\n    \r\n    event ProductListed(uint256 indexed productId, address indexed farmer, string name, uint256 price);\r\n    event ProductPurchased(uint256 indexed transactionId, uint256 indexed productId, address indexed buyer, uint256 quantity);\r\n    event FarmerVerified(address indexed farmer);\r\n    event TransactionCompleted(uint256 indexed transactionId);\r\n    event PaymentProofRecorded(bytes32 indexed orderHash, address indexed buyer, address indexed farmer, bytes32 detailsHash);\r\n    \r\n    modifier onlyOwner() {\r\n        require(msg.sender == owner, \"Only owner can call this function\");\r\n        _;\r\n    }\r\n    \r\n    modifier onlyVerifiedFarmer() {\r\n        require(verifiedFarmers[msg.sender], \"Only verified farmers can list products\");\r\n        _;\r\n    }\r\n    \r\n    constructor() {\r\n        owner = msg.sender;\r\n    }\r\n\r\n    function _splitSig(bytes memory sig) internal pure returns (bytes32 r, bytes32 s, uint8 v) {\r\n        require(sig.length == 65, \"Invalid signature length\");\r\n        assembly {\r\n            r := mload(add(sig, 32))\r\n            s := mload(add(sig, 64))\r\n            v := byte(0, mload(add(sig, 96)))\r\n        }\r\n        if (v < 27) {\r\n            v += 27;\r\n        }\r\n        require(v == 27 || v == 28, \"Invalid signature v\");\r\n    }\r\n\r\n    function _toEthSignedMessageHash(bytes32 messageHash) internal pure returns (bytes32) {\r\n        // EIP-191 personal_sign prefix\r\n        return keccak256(abi.encodePacked(\"\\x19Ethereum Signed Message:\\n32\", messageHash));\r\n    }\r\n\r\n    function _recover(bytes32 messageHash, bytes memory sig) internal pure returns (address) {\r\n        (bytes32 r, bytes32 s, uint8 v) = _splitSig(sig);\r\n        return ecrecover(_toEthSignedMessageHash(messageHash), v, r, s);\r\n    }\r\n\r\n    // messageHash MUST be: keccak256(abi.encodePacked(orderHash, detailsHash))\r\n    function recordPaymentProof(\r\n        bytes32 orderHash,\r\n        bytes32 detailsHash,\r\n        address buyer,\r\n        address farmer,\r\n        bytes calldata buyerSig,\r\n        bytes calldata farmerSig\r\n    ) public {\r\n        require(paymentProofs[orderHash].timestamp == 0, \"Proof already recorded\");\r\n        require(buyer != address(0) && farmer != address(0), \"Invalid addresses\");\r\n\r\n        bytes32 messageHash = keccak256(abi.encodePacked(orderHash, detailsHash));\r\n\r\n        address recoveredBuyer = _recover(messageHash, buyerSig);\r\n        address recoveredFarmer = _recover(messageHash, farmerSig);\r\n\r\n        require(recoveredBuyer == buyer, \"Buyer signature invalid\");\r\n        require(recoveredFarmer == farmer, \"Farmer signature invalid\");\r\n\r\n        paymentProofs[orderHash] = PaymentProof({\r\n            orderHash: orderHash,\r\n            detailsHash: detailsHash,\r\n            buyer: buyer,\r\n            farmer: farmer,\r\n            timestamp: block.timestamp\r\n        });\r\n\r\n        emit PaymentProofRecorded(orderHash, buyer, farmer, detailsHash);\r\n    }\r\n    \r\n    function verifyFarmer(address farmer) public onlyOwner {\r\n        verifiedFarmers[farmer] = true;\r\n        emit FarmerVerified(farmer);\r\n    }\r\n    \r\n    function listProduct(\r\n        string memory _name,\r\n        string memory _category,\r\n        uint256 _price,\r\n        uint256 _quantity\r\n    ) public onlyVerifiedFarmer {\r\n        productCounter++;\r\n        \r\n        products[productCounter] = Product({\r\n            id: productCounter,\r\n            name: _name,\r\n            category: _category,\r\n            price: _price,\r\n            quantity: _quantity,\r\n            farmer: msg.sender,\r\n            isActive: true,\r\n            timestamp: block.timestamp\r\n        });\r\n        \r\n        farmerProducts[msg.sender].push(productCounter);\r\n        \r\n        emit ProductListed(productCounter, msg.sender, _name, _price);\r\n    }\r\n    \r\n    function purchaseProduct(uint256 _productId, uint256 _quantity) public payable {\r\n        Product storage product = products[_productId];\r\n        \r\n        require(product.isActive, \"Product is not active\");\r\n        require(product.quantity >= _quantity, \"Insufficient quantity available\");\r\n        require(msg.value >= product.price * _quantity, \"Insufficient payment\");\r\n        \r\n        transactionCounter++;\r\n        \r\n        transactions[transactionCounter] = Transaction({\r\n            id: transactionCounter,\r\n            productId: _productId,\r\n            buyer: msg.sender,\r\n            farmer: product.farmer,\r\n            quantity: _quantity,\r\n            totalPrice: product.price * _quantity,\r\n            timestamp: block.timestamp,\r\n            isCompleted: false,\r\n            isEscrowLocked: true\r\n        });\r\n        \r\n        product.quantity -= _quantity;\r\n        if (product.quantity == 0) {\r\n            product.isActive = false;\r\n        }\r\n        \r\n        buyerTransactions[msg.sender].push(transactionCounter);\r\n        \r\n        emit ProductPurchased(transactionCounter, _productId, msg.sender, _quantity);\r\n    }\r\n    \r\n    function completeTransaction(uint256 _transactionId) public {\r\n        Transaction storage transaction = transactions[_transactionId];\r\n        \r\n        require(\r\n            msg.sender == transaction.buyer || msg.sender == transaction.farmer || msg.sender == owner,\r\n            \"Only buyer, farmer, or owner can complete transaction\"\r\n        );\r\n        require(!transaction.isCompleted, \"Transaction already completed\");\r\n        require(transaction.isEscrowLocked, \"Funds not in escrow\");\r\n        \r\n        transaction.isCompleted = true;\r\n        transaction.isEscrowLocked = false;\r\n        \r\n        uint256 platformFee = (transaction.totalPrice * 2) / 100; // 2% platform fee\r\n        uint256 farmerPayment = transaction.totalPrice - platformFee;\r\n        \r\n        payable(transaction.farmer).transfer(farmerPayment);\r\n        payable(owner).transfer(platformFee);\r\n        \r\n        emit TransactionCompleted(_transactionId);\r\n    }\r\n    \r\n    function getProduct(uint256 _productId) public view returns (Product memory) {\r\n        return products[_productId];\r\n    }\r\n    \r\n    function getTransaction(uint256 _transactionId) public view returns (Transaction memory) {\r\n        return transactions[_transactionId];\r\n    }\r\n    \r\n    function getFarmerProducts(address _farmer) public view returns (uint256[] memory) {\r\n        return farmerProducts[_farmer];\r\n    }\r\n    \r\n    function getBuyerTransactions(address _buyer) public view returns (uint256[] memory) {\r\n        return buyerTransactions[_buyer];\r\n    }\r\n    \r\n    function getAllActiveProducts() public view returns (Product[] memory) {\r\n        uint256 activeCount = 0;\r\n        \r\n        // Count active products\r\n        for (uint256 i = 1; i <= productCounter; i++) {\r\n            if (products[i].isActive) {\r\n                activeCount++;\r\n            }\r\n        }\r\n        \r\n        Product[] memory activeProducts = new Product[](activeCount);\r\n        uint256 index = 0;\r\n        \r\n        // Fill array with active products\r\n        for (uint256 i = 1; i <= productCounter; i++) {\r\n            if (products[i].isActive) {\r\n                activeProducts[index] = products[i];\r\n                index++;\r\n            }\r\n        }\r\n        \r\n        return activeProducts;\r\n    }\r\n}",
  "sourcePath": "C:\\Users\\SKY ELECTRONIC\\Desktop\\git_edits\\AgrifocusedFinalYear\\blockchain\\contracts\\AgriMarketplace.sol",
  "compiler": {
    "name": "solc",
    "version": "0.8.19+commit.7dd6d404.Emscripten.clang"
  },
  "schemaVersion": "3.4.16",
  "updatedAt": "2026-07-01T10:38:03.292Z",
  "devdoc": {
    "kind": "dev",
    "methods": {},
    "version": 1
  },
  "userdoc": {
    "kind": "user",
    "methods": {},
    "version": 1
  }
}